{
  "transactions": [
    {
      "hash": "0x3c35c646827d0162cd24b199be6010d28a56b8d13ebef5cc931ada212297b2c9",
      "transactionType": "CALL",
      "contractName": null,
      "contractAddress": "0x9f9A3E0e769144824a25ae3Fc319976F2e6c759f",
      "function": "setProductPrice(uint256,(uint128,uint128))",
      "arguments": [
        "0",
        "(14000000, 7000000)"
      ],
      "transaction": {
        "type": "0x02",
        "from": "0xae009d532328ff09e09e5d506ab5bbec3c25c0ff",
        "to": "0x9f9a3e0e769144824a25ae3fc319976f2e6c759f",
        "gas": "0x9e8a",
        "value": "0x0",
        "data": "0xc31e994200000000000000000000000000000000000000000000000000000000000000000000000000000000000000000000000000000000000000000000000000d59f8000000000000000000000000000000000000000000000000000000000006acfc0",
        "nonce": "0x3fc",
        "accessList": []
      },
      "additionalContracts": [],
      "isFixedGasLimit": false
    },
    {
      "hash": "0x11e38970d7fd5d802af95600c21a1e4cda16d4a707f1731bc2852b505cbed288",
      "transactionType": "CALL",
      "contractName": null,
      "contractAddress": "0x9f9A3E0e769144824a25ae3Fc319976F2e6c759f",
      "function": "setProductPrice(uint256,(uint128,uint128))",
      "arguments": [
        "1",
        "(14000000, 7000000)"
      ],
      "transaction": {
        "type": "0x02",
        "from": "0xae009d532328ff09e09e5d506ab5bbec3c25c0ff",
        "to": "0x9f9a3e0e769144824a25ae3fc319976f2e6c759f",
        "gas": "0x9e9a",
        "value": "0x0",
        "data": "0xc31e994200000000000000000000000000000000000000000000000000000000000000010000000000000000000000000000000000000000000000000000000000d59f8000000000000000000000000000000000000000000000000000000000006acfc0",
        "nonce": "0x3fd",
        "accessList": []
      },
      "additionalContracts": [],
      "isFixedGasLimit": false
    },
    {
      "hash": "0x7b55da08fc96e6f3bd0f02004c0dd147e1cf4eaea7fb363b0ef59a8c3c8c4d43",
      "transactionType": "CALL",
      "contractName": null,
      "contractAddress": "0x9f9A3E0e769144824a25ae3Fc319976F2e6c759f",
      "function": "setProductPrice(uint256,(uint128,uint128))",
      "arguments": [
        "2",
        "(14000000, 7000000)"
      ],
      "transaction": {
        "type": "0x02",
        "from": "0xae009d532328ff09e09e5d506ab5bbec3c25c0ff",
        "to": "0x9f9a3e0e769144824a25ae3fc319976f2e6c759f",
        "gas": "0x9e9a",
        "value": "0x0",
        "data": "0xc31e994200000000000000000000000000000000000000000000000000000000000000020000000000000000000000000000000000000000000000000000000000d59f8000000000000000000000000000000000000000000000000000000000006acfc0",
        "nonce": "0x3fe",
        "accessList": []
      },
      "additionalContracts": [],
      "isFixedGasLimit": false
    },
    {
      "hash": "0x82be46263e58ba8b74c6cc73601abfe6d2e467f1c1466aa3af61900a18e36d54",
      "transactionType": "CALL",
      "contractName": null,
      "contractAddress": "0x9f9A3E0e769144824a25ae3Fc319976F2e6c759f",
      "function": "setProductPrice(uint256,(uint128,uint128))",
      "arguments": [
        "3",
        "(14000000, 7000000)"
      ],
      "transaction": {
        "type": "0x02",
        "from": "0xae009d532328ff09e09e5d506ab5bbec3c25c0ff",
        "to": "0x9f9a3e0e769144824a25ae3fc319976f2e6c759f",
        "gas": "0x9e9a",
        "value": "0x0",
        "data": "0xc31e994200000000000000000000000000000000000000000000000000000000000000030000000000000000000000000000000000000000000000000000000000d59f8000000000000000000000000000000000000000000000000000000000006acfc0",
        "nonce": "0x3ff",
        "accessList": []
      },
      "additionalContracts": [],
      "isFixedGasLimit": false
    },
    {
      "hash": "0xabf82819272179b6881b902ef86dc9e3555fcee51049a2d3bc5bc7d565430e02",
      "transactionType": "CALL",
      "contractName": null,
      "contractAddress": "0x9f9A3E0e769144824a25ae3Fc319976F2e6c759f",
      "function": "setProductPrice(uint256,(uint128,uint128))",
      "arguments": [
        "4",
        "(14000000, 7000000)"
      ],
      "transaction": {
        "type": "0x02",
        "from": "0xae009d532328ff09e09e5d506ab5bbec3c25c0ff",
        "to": "0x9f9a3e0e769144824a25ae3fc319976f2e6c759f",
        "gas": "0x9e9a",
        "value": "0x0",
        "data": "0xc31e994200000000000000000000000000000000000000000000000000000000000000040000000000000000000000000000000000000000000000000000000000d59f8000000000000000000000000000000000000000000000000000000000006acfc0",
        "nonce": "0x400",
        "accessList": []
      },
      "additionalContracts": [],
      "isFixedGasLimit": false
    },
    {
      "hash": "0x02200a5e06b9bbde3e603d8721b13931b262782b25291333bd37914c4c158dfd",
      "transactionType": "CALL",
      "contractName": null,
      "contractAddress": "0x9f9A3E0e769144824a25ae3Fc319976F2e6c759f",
      "function": "setProductPrice(uint256,(uint128,uint128))",
      "arguments": [
        "5",
        "(14000000, 7000000)"
      ],
      "transaction": {
        "type": "0x02",
        "from": "0xae009d532328ff09e09e5d506ab5bbec3c25c0ff",
        "to": "0x9f9a3e0e769144824a25ae3fc319976f2e6c759f",
        "gas": "0x9e9a",
        "value": "0x0",
        "data": "0xc31e994200000000000000000000000000000000000000000000000000000000000000050000000000000000000000000000000000000000000000000000000000d59f8000000000000000000000000000000000000000000000000000000000006acfc0",
        "nonce": "0x401",
        "accessList": []
      },
      "additionalContracts": [],
      "isFixedGasLimit": false
    },
    {
      "hash": "0xd681fbedf4ee44eacada789fecff11b69ecaeedb74fe66647be887b9c63a85ba",
      "transactionType": "CALL",
      "contractName": null,
      "contractAddress": "0x9f9A3E0e769144824a25ae3Fc319976F2e6c759f",
      "function": "setProductPrice(uint256,(uint128,uint128))",
      "arguments": [
        "6",
        "(14000000, 7000000)"
      ],
      "transaction": {
        "type": "0x02",
        "from": "0xae009d532328ff09e09e5d506ab5bbec3c25c0ff",
        "to": "0x9f9a3e0e769144824a25ae3fc319976f2e6c759f",
        "gas": "0x9e9a",
        "value": "0x0",
        "data": "0xc31e994200000000000000000000000000000000000000000000000000000000000000060000000000000000000000000000000000000000000000000000000000d59f8000000000000000000000000000000000000000000000000000000000006acfc0",
        "nonce": "0x402",
        "accessList": []
      },
      "additionalContracts": [],
      "isFixedGasLimit": false
    },
    {
      "hash": "0x803b4fc26a0b7680b795d816eb084e66dc3e18e4280a19e38c0f90d7df5ae25c",
      "transactionType": "CALL",
      "contractName": null,
      "contractAddress": "0x9f9A3E0e769144824a25ae3Fc319976F2e6c759f",
      "function": "setProductPrice(uint256,(uint128,uint128))",
      "arguments": [
        "7",
        "(14000000, 7000000)"
      ],
      "transaction": {
        "type": "0x02",
        "from": "0xae009d532328ff09e09e5d506ab5bbec3c25c0ff",
        "to": "0x9f9a3e0e769144824a25ae3fc319976f2e6c759f",
        "gas": "0x9e9a",
        "value": "0x0",
        "data": "0xc31e994200000000000000000000000000000000000000000000000000000000000000070000000000000000000000000000000000000000000000000000000000d59f8000000000000000000000000000000000000000000000000000000000006acfc0",
        "nonce": "0x403",
        "accessList": []
      },
      "additionalContracts": [],
      "isFixedGasLimit": false
    },
    {
      "hash": "0xbebd6178dc5b27e4f666dd09e95338cc24abeb9ee8974fb209e2e5cd3fed288e",
      "transactionType": "CALL",
      "contractName": null,
      "contractAddress": "0x9f9A3E0e769144824a25ae3Fc319976F2e6c759f",
      "function": "setProductPrice(uint256,(uint128,uint128))",
      "arguments": [
        "8",
        "(14000000, 7000000)"
      ],
      "transaction": {
        "type": "0x02",
        "from": "0xae009d532328ff09e09e5d506ab5bbec3c25c0ff",
        "to": "0x9f9a3e0e769144824a25ae3fc319976f2e6c759f",
        "gas": "0x9e9a",
        "value": "0x0",
        "data": "0xc31e994200000000000000000000000000000000000000000000000000000000000000080000000000000000000000000000000000000000000000000000000000d59f8000000000000000000000000000000000000000000000000000000000006acfc0",
        "nonce": "0x404",
        "accessList": []
      },
      "additionalContracts": [],
      "isFixedGasLimit": false
    },
    {
      "hash": "0xe593a35911fc5aa18b677beea4cbb55701fe2ea652766f06c300d3ca3941eb25",
      "transactionType": "CALL",
      "contractName": null,
      "contractAddress": "0x9f9A3E0e769144824a25ae3Fc319976F2e6c759f",
      "function": "setProductPrice(uint256,(uint128,uint128))",
      "arguments": [
        "9",
        "(14000000, 7000000)"
      ],
      "transaction": {
        "type": "0x02",
        "from": "0xae009d532328ff09e09e5d506ab5bbec3c25c0ff",
        "to": "0x9f9a3e0e769144824a25ae3fc319976f2e6c759f",
        "gas": "0x9e9a",
        "value": "0x0",
        "data": "0xc31e994200000000000000000000000000000000000000000000000000000000000000090000000000000000000000000000000000000000000000000000000000d59f8000000000000000000000000000000000000000000000000000000000006acfc0",
        "nonce": "0x405",
        "accessList": []
      },
      "additionalContracts": [],
      "isFixedGasLimit": false
    },
    {
      "hash": "0xa8c1a980865ec727fd9b7f6eb8c428d79e8a62f4bcc2a28cf9f11d9cae219e01",
      "transactionType": "CALL",
      "contractName": null,
      "contractAddress": "0x9f9A3E0e769144824a25ae3Fc319976F2e6c759f",
      "function": "setProductPrice(uint256,(uint128,uint128))",
      "arguments": [
        "10",
        "(14000000, 7000000)"
      ],
      "transaction": {
        "type": "0x02",
        "from": "0xae009d532328ff09e09e5d506ab5bbec3c25c0ff",
        "to": "0x9f9a3e0e769144824a25ae3fc319976f2e6c759f",
        "gas": "0x9e9a",
        "value": "0x0",
        "data": "0xc31e9942000000000000000000000000000000000000000000000000000000000000000a0000000000000000000000000000000000000000000000000000000000d59f8000000000000000000000000000000000000000000000000000000000006acfc0",
        "nonce": "0x406",
        "accessList": []
      },
      "additionalContracts": [],
      "isFixedGasLimit": false
    },
    {
      "hash": "0xa37c2f5d9c271212896d6e71a280c476669ce8d6486d6c732197c7ae5c54970c",
      "transactionType": "CALL",
      "contractName": null,
      "contractAddress": "0x9f9A3E0e769144824a25ae3Fc319976F2e6c759f",
      "function": "setProductPrice(uint256,(uint128,uint128))",
      "arguments": [
        "11",
        "(14000000, 7000000)"
      ],
      "transaction": {
        "type": "0x02",
        "from": "0xae009d532328ff09e09e5d506ab5bbec3c25c0ff",
        "to": "0x9f9a3e0e769144824a25ae3fc319976f2e6c759f",
        "gas": "0x9e9a",
        "value": "0x0",
        "data": "0xc31e9942000000000000000000000000000000000000000000000000000000000000000b0000000000000000000000000000000000000000000000000000000000d59f8000000000000000000000000000000000000000000000000000000000006acfc0",
        "nonce": "0x407",
        "accessList": []
      },
      "additionalContracts": [],
      "isFixedGasLimit": false
    },
    {
      "hash": "0xfe90c2a3a39adbd57598def1d52ccfc9a6df58f8ac9657649c979c092c657e60",
      "transactionType": "CALL",
      "contractName": null,
      "contractAddress": "0x9f9A3E0e769144824a25ae3Fc319976F2e6c759f",
      "function": "setProductPrice(uint256,(uint128,uint128))",
      "arguments": [
        "12",
        "(14000000, 7000000)"
      ],
      "transaction": {
        "type": "0x02",
        "from": "0xae009d532328ff09e09e5d506ab5bbec3c25c0ff",
        "to": "0x9f9a3e0e769144824a25ae3fc319976f2e6c759f",
        "gas": "0x9e9a",
        "value": "0x0",
        "data": "0xc31e9942000000000000000000000000000000000000000000000000000000000000000c0000000000000000000000000000000000000000000000000000000000d59f8000000000000000000000000000000000000000000000000000000000006acfc0",
        "nonce": "0x408",
        "accessList": []
      },
      "additionalContracts": [],
      "isFixedGasLimit": false
    },
    {
      "hash": "0xd0af0004f226e980ea8de8ed464ad8f8ff46bcae15595d7d76efef864113b2cd",
      "transactionType": "CALL",
      "contractName": null,
      "contractAddress": "0x9f9A3E0e769144824a25ae3Fc319976F2e6c759f",
      "function": "setProductPrice(uint256,(uint128,uint128))",
      "arguments": [
        "13",
        "(14000000, 7000000)"
      ],
      "transaction": {
        "type": "0x02",
        "from": "0xae009d532328ff09e09e5d506ab5bbec3c25c0ff",
        "to": "0x9f9a3e0e769144824a25ae3fc319976f2e6c759f",
        "gas": "0x9e9a",
        "value": "0x0",
        "data": "0xc31e9942000000000000000000000000000000000000000000000000000000000000000d0000000000000000000000000000000000000000000000000000000000d59f8000000000000000000000000000000000000000000000000000000000006acfc0",
        "nonce": "0x409",
        "accessList": []
      },
      "additionalContracts": [],
      "isFixedGasLimit": false
    },
    {
      "hash": "0xf98d49be99cdd12403a864d0f459f7615c52c93a03f070c88b97d10cb9f1fe86",
      "transactionType": "CALL",
      "contractName": null,
      "contractAddress": "0x9f9A3E0e769144824a25ae3Fc319976F2e6c759f",
      "function": "setProductPrice(uint256,(uint128,uint128))",
      "arguments": [
        "14",
        "(14000000, 7000000)"
      ],
      "transaction": {
        "type": "0x02",
        "from": "0xae009d532328ff09e09e5d506ab5bbec3c25c0ff",
        "to": "0x9f9a3e0e769144824a25ae3fc319976f2e6c759f",
        "gas": "0x9e9a",
        "value": "0x0",
        "data": "0xc31e9942000000000000000000000000000000000000000000000000000000000000000e0000000000000000000000000000000000000000000000000000000000d59f8000000000000000000000000000000000000000000000000000000000006acfc0",
        "nonce": "0x40a",
        "accessList": []
      },
      "additionalContracts": [],
      "isFixedGasLimit": false
    },
    {
      "hash": "0xe0429df6d9c7eb353d6eec007fc305fa10fd1128ee9c75c3c79adf86c4c47e70",
      "transactionType": "CALL",
      "contractName": null,
      "contractAddress": "0x9f9A3E0e769144824a25ae3Fc319976F2e6c759f",
      "function": "setProductPrice(uint256,(uint128,uint128))",
      "arguments": [
        "15",
        "(14000000, 7000000)"
      ],
      "transaction": {
        "type": "0x02",
        "from": "0xae009d532328ff09e09e5d506ab5bbec3c25c0ff",
        "to": "0x9f9a3e0e769144824a25ae3fc319976f2e6c759f",
        "gas": "0x9e9a",
        "value": "0x0",
        "data": "0xc31e9942000000000000000000000000000000000000000000000000000000000000000f0000000000000000000000000000000000000000000000000000000000d59f8000000000000000000000000000000000000000000000000000000000006acfc0",
        "nonce": "0x40b",
        "accessList": []
      },
      "additionalContracts": [],
      "isFixedGasLimit": false
    },
    {
      "hash": "0x567bd95f34d5344f7d1490208d7c0deb3e330efbe061b8fee23d1097881aab14",
      "transactionType": "CALL",
      "contractName": null,
      "contractAddress": "0x9f9A3E0e769144824a25ae3Fc319976F2e6c759f",
      "function": "setProductPrice(uint256,(uint128,uint128))",
      "arguments": [
        "16",
        "(14000000, 7000000)"
      ],
      "transaction": {
        "type": "0x02",
        "from": "0xae009d532328ff09e09e5d506ab5bbec3c25c0ff",
        "to": "0x9f9a3e0e769144824a25ae3fc319976f2e6c759f",
        "gas": "0x9e9a",
        "value": "0x0",
        "data": "0xc31e994200000000000000000000000000000000000000000000000000000000000000100000000000000000000000000000000000000000000000000000000000d59f8000000000000000000000000000000000000000000000000000000000006acfc0",
        "nonce": "0x40c",
        "accessList": []
      },
      "additionalContracts": [],
      "isFixedGasLimit": false
    },
    {
      "hash": "0xe7d57e9bdca423696f6bcf0da525939fafac6b1135a7d36a54cd216bd6489e4c",
      "transactionType": "CALL",
      "contractName": null,
      "contractAddress": "0x9f9A3E0e769144824a25ae3Fc319976F2e6c759f",
      "function": "setProductPrice(uint256,(uint128,uint128))",
      "arguments": [
        "17",
        "(14000000, 7000000)"
      ],
      "transaction": {
        "type": "0x02",
        "from": "0xae009d532328ff09e09e5d506ab5bbec3c25c0ff",
        "to": "0x9f9a3e0e769144824a25ae3fc319976f2e6c759f",
        "gas": "0x9e9a",
        "value": "0x0",
        "data": "0xc31e994200000000000000000000000000000000000000000000000000000000000000110000000000000000000000000000000000000000000000000000000000d59f8000000000000000000000000000000000000000000000000000000000006acfc0",
        "nonce": "0x40d",
        "accessList": []
      },
      "additionalContracts": [],
      "isFixedGasLimit": false
    },
    {
      "hash": "0x6e05f818244f80447c885538c20c8188eda3de2d338d5512e9c69b9525661cbd",
      "transactionType": "CALL",
      "contractName": null,
      "contractAddress": "0x9f9A3E0e769144824a25ae3Fc319976F2e6c759f",
      "function": "setProductPrice(uint256,(uint128,uint128))",
      "arguments": [
        "18",
        "(14000000, 7000000)"
      ],
      "transaction": {
        "type": "0x02",
        "from": "0xae009d532328ff09e09e5d506ab5bbec3c25c0ff",
        "to": "0x9f9a3e0e769144824a25ae3fc319976f2e6c759f",
        "gas": "0x9e9a",
        "value": "0x0",
        "data": "0xc31e994200000000000000000000000000000000000000000000000000000000000000120000000000000000000000000000000000000000000000000000000000d59f8000000000000000000000000000000000000000000000000000000000006acfc0",
        "nonce": "0x40e",
        "accessList": []
      },
      "additionalContracts": [],
      "isFixedGasLimit": false
    },
    {
      "hash": "0x163bae5b978e3109defc095a5c64405e124bcf6ac575a601ba9a20250065d4aa",
      "transactionType": "CALL",
      "contractName": null,
      "contractAddress": "0x9f9A3E0e769144824a25ae3Fc319976F2e6c759f",
      "function": "setProductPrice(uint256,(uint128,uint128))",
      "arguments": [
        "19",
        "(14000000, 7000000)"
      ],
      "transaction": {
        "type": "0x02",
        "from": "0xae009d532328ff09e09e5d506ab5bbec3c25c0ff",
        "to": "0x9f9a3e0e769144824a25ae3fc319976f2e6c759f",
        "gas": "0x9e9a",
        "value": "0x0",
        "data": "0xc31e994200000000000000000000000000000000000000000000000000000000000000130000000000000000000000000000000000000000000000000000000000d59f8000000000000000000000000000000000000000000000000000000000006acfc0",
        "nonce": "0x40f",
        "accessList": []
      },
      "additionalContracts": [],
      "isFixedGasLimit": false
    },
    {
      "hash": "0x9a39c96fa46e1aded7fddd8a3a97830825d435f1f2161807617d3e7d99e51348",
      "transactionType": "CALL",
      "contractName": null,
      "contractAddress": "0x9f9A3E0e769144824a25ae3Fc319976F2e6c759f",
      "function": "setProductPrice(uint256,(uint128,uint128))",
      "arguments": [
        "20",
        "(14000000, 7000000)"
      ],
      "transaction": {
        "type": "0x02",
        "from": "0xae009d532328ff09e09e5d506ab5bbec3c25c0ff",
        "to": "0x9f9a3e0e769144824a25ae3fc319976f2e6c759f",
        "gas": "0x9e9a",
        "value": "0x0",
        "data": "0xc31e994200000000000000000000000000000000000000000000000000000000000000140000000000000000000000000000000000000000000000000000000000d59f8000000000000000000000000000000000000000000000000000000000006acfc0",
        "nonce": "0x410",
        "accessList": []
      },
      "additionalContracts": [],
      "isFixedGasLimit": false
    },
    {
      "hash": "0x85304d72cb3210fb7bfd540c7c0cc1c7ca72a7c9db03260319530b5dae8ff28e",
      "transactionType": "CALL",
      "contractName": null,
      "contractAddress": "0x9f9A3E0e769144824a25ae3Fc319976F2e6c759f",
      "function": "setProductPrice(uint256,(uint128,uint128))",
      "arguments": [
        "21",
        "(14000000, 7000000)"
      ],
      "transaction": {
        "type": "0x02",
        "from": "0xae009d532328ff09e09e5d506ab5bbec3c25c0ff",
        "to": "0x9f9a3e0e769144824a25ae3fc319976f2e6c759f",
        "gas": "0x9e9a",
        "value": "0x0",
        "data": "0xc31e994200000000000000000000000000000000000000000000000000000000000000150000000000000000000000000000000000000000000000000000000000d59f8000000000000000000000000000000000000000000000000000000000006acfc0",
        "nonce": "0x411",
        "accessList": []
      },
      "additionalContracts": [],
      "isFixedGasLimit": false
    },
    {
      "hash": "0x9aaf98dd4283902e15345926210977c2826596d782e20508958f196821afde80",
      "transactionType": "CALL",
      "contractName": null,
      "contractAddress": "0x9f9A3E0e769144824a25ae3Fc319976F2e6c759f",
      "function": "setProductPrice(uint256,(uint128,uint128))",
      "arguments": [
        "22",
        "(14000000, 7000000)"
      ],
      "transaction": {
        "type": "0x02",
        "from": "0xae009d532328ff09e09e5d506ab5bbec3c25c0ff",
        "to": "0x9f9a3e0e769144824a25ae3fc319976f2e6c759f",
        "gas": "0x9e9a",
        "value": "0x0",
        "data": "0xc31e994200000000000000000000000000000000000000000000000000000000000000160000000000000000000000000000000000000000000000000000000000d59f8000000000000000000000000000000000000000000000000000000000006acfc0",
        "nonce": "0x412",
        "accessList": []
      },
      "additionalContracts": [],
      "isFixedGasLimit": false
    },
    {
      "hash": "0x5bbb826f4618a6f955b00f86c5df1342204951df3f9c9a8d711c94885c6b31ad",
      "transactionType": "CALL",
      "contractName": null,
      "contractAddress": "0x9f9A3E0e769144824a25ae3Fc319976F2e6c759f",
      "function": "setProductPrice(uint256,(uint128,uint128))",
      "arguments": [
        "23",
        "(14000000, 7000000)"
      ],
      "transaction": {
        "type": "0x02",
        "from": "0xae009d532328ff09e09e5d506ab5bbec3c25c0ff",
        "to": "0x9f9a3e0e769144824a25ae3fc319976f2e6c759f",
        "gas": "0x9e9a",
        "value": "0x0",
        "data": "0xc31e994200000000000000000000000000000000000000000000000000000000000000170000000000000000000000000000000000000000000000000000000000d59f8000000000000000000000000000000000000000000000000000000000006acfc0",
        "nonce": "0x413",
        "accessList": []
      },
      "additionalContracts": [],
      "isFixedGasLimit": false
    },
    {
      "hash": "0x692ec248c5db6c545554cf526fa380f03ef4d2a7a6fb820c96f271928c082739",
      "transactionType": "CALL",
      "contractName": null,
      "contractAddress": "0x9f9A3E0e769144824a25ae3Fc319976F2e6c759f",
      "function": "setProductPrice(uint256,(uint128,uint128))",
      "arguments": [
        "24",
        "(14000000, 7000000)"
      ],
      "transaction": {
        "type": "0x02",
        "from": "0xae009d532328ff09e09e5d506ab5bbec3c25c0ff",
        "to": "0x9f9a3e0e769144824a25ae3fc319976f2e6c759f",
        "gas": "0x9e9a",
        "value": "0x0",
        "data": "0xc31e994200000000000000000000000000000000000000000000000000000000000000180000000000000000000000000000000000000000000000000000000000d59f8000000000000000000000000000000000000000000000000000000000006acfc0",
        "nonce": "0x414",
        "accessList": []
      },
      "additionalContracts": [],
      "isFixedGasLimit": false
    },
    {
      "hash": "0x6821ae768da61d5a0d2397a5dbdf0271a13203fde6899ada56bb7a53d18893bf",
      "transactionType": "CALL",
      "contractName": null,
      "contractAddress": "0x9f9A3E0e769144824a25ae3Fc319976F2e6c759f",
      "function": "setProductPrice(uint256,(uint128,uint128))",
      "arguments": [
        "25",
        "(14000000, 7000000)"
      ],
      "transaction": {
        "type": "0x02",
        "from": "0xae009d532328ff09e09e5d506ab5bbec3c25c0ff",
        "to": "0x9f9a3e0e769144824a25ae3fc319976f2e6c759f",
        "gas": "0x9e9a",
        "value": "0x0",
        "data": "0xc31e994200000000000000000000000000000000000000000000000000000000000000190000000000000000000000000000000000000000000000000000000000d59f8000000000000000000000000000000000000000000000000000000000006acfc0",
        "nonce": "0x415",
        "accessList": []
      },
      "additionalContracts": [],
      "isFixedGasLimit": false
    },
    {
      "hash": "0x2472718d5582c6b1f1d770eb1781ab6c2da809631e2ed500c578db853de6a47d",
      "transactionType": "CALL",
      "contractName": null,
      "contractAddress": "0x9f9A3E0e769144824a25ae3Fc319976F2e6c759f",
      "function": "setProductPrice(uint256,(uint128,uint128))",
      "arguments": [
        "26",
        "(14000000, 7000000)"
      ],
      "transaction": {
        "type": "0x02",
        "from": "0xae009d532328ff09e09e5d506ab5bbec3c25c0ff",
        "to": "0x9f9a3e0e769144824a25ae3fc319976f2e6c759f",
        "gas": "0x9e9a",
        "value": "0x0",
        "data": "0xc31e9942000000000000000000000000000000000000000000000000000000000000001a0000000000000000000000000000000000000000000000000000000000d59f8000000000000000000000000000000000000000000000000000000000006acfc0",
        "nonce": "0x416",
        "accessList": []
      },
      "additionalContracts": [],
      "isFixedGasLimit": false
    },
    {
      "hash": "0x66ec5df58eb6ef039b24752ff00e9d421090a86d9a08ac854d1b3836355eab12",
      "transactionType": "CALL",
      "contractName": null,
      "contractAddress": "0x9f9A3E0e769144824a25ae3Fc319976F2e6c759f",
      "function": "setProductPrice(uint256,(uint128,uint128))",
      "arguments": [
        "27",
        "(14000000, 7000000)"
      ],
      "transaction": {
        "type": "0x02",
        "from": "0xae009d532328ff09e09e5d506ab5bbec3c25c0ff",
        "to": "0x9f9a3e0e769144824a25ae3fc319976f2e6c759f",
        "gas": "0x9e9a",
        "value": "0x0",
        "data": "0xc31e9942000000000000000000000000000000000000000000000000000000000000001b0000000000000000000000000000000000000000000000000000000000d59f8000000000000000000000000000000000000000000000000000000000006acfc0",
        "nonce": "0x417",
        "accessList": []
      },
      "additionalContracts": [],
      "isFixedGasLimit": false
    },
    {
      "hash": "0x23536a09ac59fd01fe8211fde4036f6bc32d0df456665f8914664092a6ca70ed",
      "transactionType": "CALL",
      "contractName": null,
      "contractAddress": "0x9f9A3E0e769144824a25ae3Fc319976F2e6c759f",
      "function": "setProductPrice(uint256,(uint128,uint128))",
      "arguments": [
        "28",
        "(14000000, 7000000)"
      ],
      "transaction": {
        "type": "0x02",
        "from": "0xae009d532328ff09e09e5d506ab5bbec3c25c0ff",
        "to": "0x9f9a3e0e769144824a25ae3fc319976f2e6c759f",
        "gas": "0x9e9a",
        "value": "0x0",
        "data": "0xc31e9942000000000000000000000000000000000000000000000000000000000000001c0000000000000000000000000000000000000000000000000000000000d59f8000000000000000000000000000000000000000000000000000000000006acfc0",
        "nonce": "0x418",
        "accessList": []
      },
      "additionalContracts": [],
      "isFixedGasLimit": false
    },
    {
      "hash": "0x1e9da7185a87762eef5e512056a929c81d7fc71206512df2b1ff58bdd3fcb97c",
      "transactionType": "CALL",
      "contractName": null,
      "contractAddress": "0x9f9A3E0e769144824a25ae3Fc319976F2e6c759f",
      "function": "setProductPrice(uint256,(uint128,uint128))",
      "arguments": [
        "29",
        "(14000000, 7000000)"
      ],
      "transaction": {
        "type": "0x02",
        "from": "0xae009d532328ff09e09e5d506ab5bbec3c25c0ff",
        "to": "0x9f9a3e0e769144824a25ae3fc319976f2e6c759f",
        "gas": "0x9e9a",
        "value": "0x0",
        "data": "0xc31e9942000000000000000000000000000000000000000000000000000000000000001d0000000000000000000000000000000000000000000000000000000000d59f8000000000000000000000000000000000000000000000000000000000006acfc0",
        "nonce": "0x419",
        "accessList": []
      },
      "additionalContracts": [],
      "isFixedGasLimit": false
    },
    {
      "hash": "0x9a65b2dba76b0718659d66a19cedeb044a387f2ca06c12a9a246976046ca0acc",
      "transactionType": "CALL",
      "contractName": null,
      "contractAddress": "0x9f9A3E0e769144824a25ae3Fc319976F2e6c759f",
      "function": "setProductPrice(uint256,(uint128,uint128))",
      "arguments": [
        "30",
        "(14000000, 7000000)"
      ],
      "transaction": {
        "type": "0x02",
        "from": "0xae009d532328ff09e09e5d506ab5bbec3c25c0ff",
        "to": "0x9f9a3e0e769144824a25ae3fc319976f2e6c759f",
        "gas": "0x9e9a",
        "value": "0x0",
        "data": "0xc31e9942000000000000000000000000000000000000000000000000000000000000001e0000000000000000000000000000000000000000000000000000000000d59f8000000000000000000000000000000000000000000000000000000000006acfc0",
        "nonce": "0x41a",
        "accessList": []
      },
      "additionalContracts": [],
      "isFixedGasLimit": false
    },
    {
      "hash": "0xaaf0cdd34fac9b58327f594330fe8e3f55a9b807f18ab09b9a88e3ba8e01ca88",
      "transactionType": "CALL",
      "contractName": null,
      "contractAddress": "0x9f9A3E0e769144824a25ae3Fc319976F2e6c759f",
      "function": "setProductPrice(uint256,(uint128,uint128))",
      "arguments": [
        "31",
        "(14000000, 7000000)"
      ],
      "transaction": {
        "type": "0x02",
        "from": "0xae009d532328ff09e09e5d506ab5bbec3c25c0ff",
        "to": "0x9f9a3e0e769144824a25ae3fc319976f2e6c759f",
        "gas": "0x9e9a",
        "value": "0x0",
        "data": "0xc31e9942000000000000000000000000000000000000000000000000000000000000001f0000000000000000000000000000000000000000000000000000000000d59f8000000000000000000000000000000000000000000000000000000000006acfc0",
        "nonce": "0x41b",
        "accessList": []
      },
      "additionalContracts": [],
      "isFixedGasLimit": false
    },
    {
      "hash": "0x3c2fd44abb54d0e839685f17221d911723f62f478580c227b340536fb1f17bb7",
      "transactionType": "CALL",
      "contractName": null,
      "contractAddress": "0x9f9A3E0e769144824a25ae3Fc319976F2e6c759f",
      "function": "setProductPrice(uint256,(uint128,uint128))",
      "arguments": [
        "32",
        "(14000000, 7000000)"
      ],
      "transaction": {
        "type": "0x02",
        "from": "0xae009d532328ff09e09e5d506ab5bbec3c25c0ff",
        "to": "0x9f9a3e0e769144824a25ae3fc319976f2e6c759f",
        "gas": "0x9e9a",
        "value": "0x0",
        "data": "0xc31e994200000000000000000000000000000000000000000000000000000000000000200000000000000000000000000000000000000000000000000000000000d59f8000000000000000000000000000000000000000000000000000000000006acfc0",
        "nonce": "0x41c",
        "accessList": []
      },
      "additionalContracts": [],
      "isFixedGasLimit": false
    },
    {
      "hash": "0x374081a735052996e5b9b01f930bdbd61201c07165c1b83f4e18d403a5c6dfbb",
      "transactionType": "CALL",
      "contractName": null,
      "contractAddress": "0x9f9A3E0e769144824a25ae3Fc319976F2e6c759f",
      "function": "setProductPrice(uint256,(uint128,uint128))",
      "arguments": [
        "33",
        "(14000000, 7000000)"
      ],
      "transaction": {
        "type": "0x02",
        "from": "0xae009d532328ff09e09e5d506ab5bbec3c25c0ff",
        "to": "0x9f9a3e0e769144824a25ae3fc319976f2e6c759f",
        "gas": "0x9e9a",
        "value": "0x0",
        "data": "0xc31e994200000000000000000000000000000000000000000000000000000000000000210000000000000000000000000000000000000000000000000000000000d59f8000000000000000000000000000000000000000000000000000000000006acfc0",
        "nonce": "0x41d",
        "accessList": []
      },
      "additionalContracts": [],
      "isFixedGasLimit": false
    },
    {
      "hash": "0x5c7bff4c555ce7fdb750a800ab30e6a760fba901ff7ec61e1fd0b37f3e30f1e1",
      "transactionType": "CALL",
      "contractName": null,
      "contractAddress": "0x9f9A3E0e769144824a25ae3Fc319976F2e6c759f",
      "function": "setProductPrice(uint256,(uint128,uint128))",
      "arguments": [
        "34",
        "(14000000, 7000000)"
      ],
      "transaction": {
        "type": "0x02",
        "from": "0xae009d532328ff09e09e5d506ab5bbec3c25c0ff",
        "to": "0x9f9a3e0e769144824a25ae3fc319976f2e6c759f",
        "gas": "0x9e9a",
        "value": "0x0",
        "data": "0xc31e994200000000000000000000000000000000000000000000000000000000000000220000000000000000000000000000000000000000000000000000000000d59f8000000000000000000000000000000000000000000000000000000000006acfc0",
        "nonce": "0x41e",
        "accessList": []
      },
      "additionalContracts": [],
      "isFixedGasLimit": false
    },
    {
      "hash": "0x5c2d16885634fdbd7dcf7d747f17619921ecc04ae3e6affac82433b1640d436c",
      "transactionType": "CALL",
      "contractName": null,
      "contractAddress": "0x9f9A3E0e769144824a25ae3Fc319976F2e6c759f",
      "function": "setProductPrice(uint256,(uint128,uint128))",
      "arguments": [
        "35",
        "(14000000, 7000000)"
      ],
      "transaction": {
        "type": "0x02",
        "from": "0xae009d532328ff09e09e5d506ab5bbec3c25c0ff",
        "to": "0x9f9a3e0e769144824a25ae3fc319976f2e6c759f",
        "gas": "0x9e9a",
        "value": "0x0",
        "data": "0xc31e994200000000000000000000000000000000000000000000000000000000000000230000000000000000000000000000000000000000000000000000000000d59f8000000000000000000000000000000000000000000000000000000000006acfc0",
        "nonce": "0x41f",
        "accessList": []
      },
      "additionalContracts": [],
      "isFixedGasLimit": false
    },
    {
      "hash": "0x9cef00683753fb7027355727cb6baaa1e68087c0d083c4f0be149c1a3e90d77f",
      "transactionType": "CALL",
      "contractName": null,
      "contractAddress": "0x9f9A3E0e769144824a25ae3Fc319976F2e6c759f",
      "function": "setProductPrice(uint256,(uint128,uint128))",
      "arguments": [
        "36",
        "(14000000, 7000000)"
      ],
      "transaction": {
        "type": "0x02",
        "from": "0xae009d532328ff09e09e5d506ab5bbec3c25c0ff",
        "to": "0x9f9a3e0e769144824a25ae3fc319976f2e6c759f",
        "gas": "0x9e9a",
        "value": "0x0",
        "data": "0xc31e994200000000000000000000000000000000000000000000000000000000000000240000000000000000000000000000000000000000000000000000000000d59f8000000000000000000000000000000000000000000000000000000000006acfc0",
        "nonce": "0x420",
        "accessList": []
      },
      "additionalContracts": [],
      "isFixedGasLimit": false
    },
    {
      "hash": "0x5dd700ec8f737c7696332eadfa729b87d44dd0997f041a712706c84da68d37ab",
      "transactionType": "CALL",
      "contractName": null,
      "contractAddress": "0x9f9A3E0e769144824a25ae3Fc319976F2e6c759f",
      "function": "setProductPrice(uint256,(uint128,uint128))",
      "arguments": [
        "37",
        "(14000000, 7000000)"
      ],
      "transaction": {
        "type": "0x02",
        "from": "0xae009d532328ff09e09e5d506ab5bbec3c25c0ff",
        "to": "0x9f9a3e0e769144824a25ae3fc319976f2e6c759f",
        "gas": "0x9e9a",
        "value": "0x0",
        "data": "0xc31e994200000000000000000000000000000000000000000000000000000000000000250000000000000000000000000000000000000000000000000000000000d59f8000000000000000000000000000000000000000000000000000000000006acfc0",
        "nonce": "0x421",
        "accessList": []
      },
      "additionalContracts": [],
      "isFixedGasLimit": false
    },
    {
      "hash": "0xe358bbf4541ca310cd1e03688e8708448ddc6e667ca728789354b60072244b89",
      "transactionType": "CALL",
      "contractName": null,
      "contractAddress": "0x9f9A3E0e769144824a25ae3Fc319976F2e6c759f",
      "function": "setProductPrice(uint256,(uint128,uint128))",
      "arguments": [
        "38",
        "(14000000, 7000000)"
      ],
      "transaction": {
        "type": "0x02",
        "from": "0xae009d532328ff09e09e5d506ab5bbec3c25c0ff",
        "to": "0x9f9a3e0e769144824a25ae3fc319976f2e6c759f",
        "gas": "0x9e9a",
        "value": "0x0",
        "data": "0xc31e994200000000000000000000000000000000000000000000000000000000000000260000000000000000000000000000000000000000000000000000000000d59f8000000000000000000000000000000000000000000000000000000000006acfc0",
        "nonce": "0x422",
        "accessList": []
      },
      "additionalContracts": [],
      "isFixedGasLimit": false
    },
    {
      "hash": "0xce1768058727df9f6db44b34eea9ae6010b4bd172db04743960a55ac766516a9",
      "transactionType": "CALL",
      "contractName": null,
      "contractAddress": "0x9f9A3E0e769144824a25ae3Fc319976F2e6c759f",
      "function": "setProductPrice(uint256,(uint128,uint128))",
      "arguments": [
        "39",
        "(14000000, 7000000)"
      ],
      "transaction": {
        "type": "0x02",
        "from": "0xae009d532328ff09e09e5d506ab5bbec3c25c0ff",
        "to": "0x9f9a3e0e769144824a25ae3fc319976f2e6c759f",
        "gas": "0x9e9a",
        "value": "0x0",
        "data": "0xc31e994200000000000000000000000000000000000000000000000000000000000000270000000000000000000000000000000000000000000000000000000000d59f8000000000000000000000000000000000000000000000000000000000006acfc0",
        "nonce": "0x423",
        "accessList": []
      },
      "additionalContracts": [],
      "isFixedGasLimit": false
    },
    {
      "hash": "0xb150f86d078e98cf7bff18a7bd868587f340f63b140fb8a67125897655b0e46d",
      "transactionType": "CALL",
      "contractName": null,
      "contractAddress": "0x9f9A3E0e769144824a25ae3Fc319976F2e6c759f",
      "function": "setProductPrice(uint256,(uint128,uint128))",
      "arguments": [
        "40",
        "(14000000, 7000000)"
      ],
      "transaction": {
        "type": "0x02",
        "from": "0xae009d532328ff09e09e5d506ab5bbec3c25c0ff",
        "to": "0x9f9a3e0e769144824a25ae3fc319976f2e6c759f",
        "gas": "0x9e9a",
        "value": "0x0",
        "data": "0xc31e994200000000000000000000000000000000000000000000000000000000000000280000000000000000000000000000000000000000000000000000000000d59f8000000000000000000000000000000000000000000000000000000000006acfc0",
        "nonce": "0x424",
        "accessList": []
      },
      "additionalContracts": [],
      "isFixedGasLimit": false
    },
    {
      "hash": "0x40127fd83bcb8b694af244a9393f543ce3cccc19ebe77ee6893e27b2539879ec",
      "transactionType": "CALL",
      "contractName": null,
      "contractAddress": "0x9f9A3E0e769144824a25ae3Fc319976F2e6c759f",
      "function": "setProductPrice(uint256,(uint128,uint128))",
      "arguments": [
        "41",
        "(14000000, 7000000)"
      ],
      "transaction": {
        "type": "0x02",
        "from": "0xae009d532328ff09e09e5d506ab5bbec3c25c0ff",
        "to": "0x9f9a3e0e769144824a25ae3fc319976f2e6c759f",
        "gas": "0x9e9a",
        "value": "0x0",
        "data": "0xc31e994200000000000000000000000000000000000000000000000000000000000000290000000000000000000000000000000000000000000000000000000000d59f8000000000000000000000000000000000000000000000000000000000006acfc0",
        "nonce": "0x425",
        "accessList": []
      },
      "additionalContracts": [],
      "isFixedGasLimit": false
    },
    {
      "hash": "0x32a51af84d227acf42a477b870239a049b64847cbbf014f3b992b87f7dbf9fba",
      "transactionType": "CALL",
      "contractName": null,
      "contractAddress": "0x9f9A3E0e769144824a25ae3Fc319976F2e6c759f",
      "function": "setProductPrice(uint256,(uint128,uint128))",
      "arguments": [
        "42",
        "(14000000, 7000000)"
      ],
      "transaction": {
        "type": "0x02",
        "from": "0xae009d532328ff09e09e5d506ab5bbec3c25c0ff",
        "to": "0x9f9a3e0e769144824a25ae3fc319976f2e6c759f",
        "gas": "0x9e9a",
        "value": "0x0",
        "data": "0xc31e9942000000000000000000000000000000000000000000000000000000000000002a0000000000000000000000000000000000000000000000000000000000d59f8000000000000000000000000000000000000000000000000000000000006acfc0",
        "nonce": "0x426",
        "accessList": []
      },
      "additionalContracts": [],
      "isFixedGasLimit": false
    },
    {
      "hash": "0xfe80db139a29bc91e1b1a84e0a11dc3c8e612320615f894de1897793987daf19",
      "transactionType": "CALL",
      "contractName": null,
      "contractAddress": "0x9f9A3E0e769144824a25ae3Fc319976F2e6c759f",
      "function": "setProductPrice(uint256,(uint128,uint128))",
      "arguments": [
        "43",
        "(14000000, 7000000)"
      ],
      "transaction": {
        "type": "0x02",
        "from": "0xae009d532328ff09e09e5d506ab5bbec3c25c0ff",
        "to": "0x9f9a3e0e769144824a25ae3fc319976f2e6c759f",
        "gas": "0x9e9a",
        "value": "0x0",
        "data": "0xc31e9942000000000000000000000000000000000000000000000000000000000000002b0000000000000000000000000000000000000000000000000000000000d59f8000000000000000000000000000000000000000000000000000000000006acfc0",
        "nonce": "0x427",
        "accessList": []
      },
      "additionalContracts": [],
      "isFixedGasLimit": false
    },
    {
      "hash": "0x67230a80c0f199df8867d83302976406ec1409b54d20d9e4a2218f965160e1c7",
      "transactionType": "CALL",
      "contractName": null,
      "contractAddress": "0x9f9A3E0e769144824a25ae3Fc319976F2e6c759f",
      "function": "setProductPrice(uint256,(uint128,uint128))",
      "arguments": [
        "44",
        "(14000000, 7000000)"
      ],
      "transaction": {
        "type": "0x02",
        "from": "0xae009d532328ff09e09e5d506ab5bbec3c25c0ff",
        "to": "0x9f9a3e0e769144824a25ae3fc319976f2e6c759f",
        "gas": "0x9e9a",
        "value": "0x0",
        "data": "0xc31e9942000000000000000000000000000000000000000000000000000000000000002c0000000000000000000000000000000000000000000000000000000000d59f8000000000000000000000000000000000000000000000000000000000006acfc0",
        "nonce": "0x428",
        "accessList": []
      },
      "additionalContracts": [],
      "isFixedGasLimit": false
    },
    {
      "hash": "0x03c433014121a311f348bc3b1a230c2daa3c356614b360149102b2f412b1600d",
      "transactionType": "CALL",
      "contractName": null,
      "contractAddress": "0x9f9A3E0e769144824a25ae3Fc319976F2e6c759f",
      "function": "setProductPrice(uint256,(uint128,uint128))",
      "arguments": [
        "45",
        "(14000000, 7000000)"
      ],
      "transaction": {
        "type": "0x02",
        "from": "0xae009d532328ff09e09e5d506ab5bbec3c25c0ff",
        "to": "0x9f9a3e0e769144824a25ae3fc319976f2e6c759f",
        "gas": "0x9e9a",
        "value": "0x0",
        "data": "0xc31e9942000000000000000000000000000000000000000000000000000000000000002d0000000000000000000000000000000000000000000000000000000000d59f8000000000000000000000000000000000000000000000000000000000006acfc0",
        "nonce": "0x429",
        "accessList": []
      },
      "additionalContracts": [],
      "isFixedGasLimit": false
    }
  ],
  "receipts": [
    {
      "transactionHash": "0x3c35c646827d0162cd24b199be6010d28a56b8d13ebef5cc931ada212297b2c9",
      "transactionIndex": "0xc",
      "blockHash": "0x00384e9567ca86e3b86ec0d521547abbd506c7aba8a114ba27eb2240aeac91be",
      "blockNumber": "0xe74c53",
      "from": "0xAe009d532328FF09e09E5d506aB5BBeC3c25c0FF",
      "to": "0x9f9A3E0e769144824a25ae3Fc319976F2e6c759f",
      "cumulativeGasUsed": "0x1c87d0",
      "gasUsed": "0x72c8",
      "contractAddress": null,
      "logs": [],
      "status": "0x1",
      "logsBloom": "0x00000000000000000000000000000000000000000000000000000000000000000000000000000000000000000000000000000000000000000000000000000000000000000000000000000000000000000000000000000000000000000000000000000000000000000000000000000000000000000000000000000000000000000000000000000000000000000000000000000000000000000000000000000000000000000000000000000000000000000000000000000000000000000000000000000000000000000000000000000000000000000000000000000000000000000000000000000000000000000000000000000000000000000000000000000000",
      "type": "0x2",
      "effectiveGasPrice": "0x144aef8"
    },
    {
      "transactionHash": "0x11e38970d7fd5d802af95600c21a1e4cda16d4a707f1731bc2852b505cbed288",
      "transactionIndex": "0xd",
      "blockHash": "0x00384e9567ca86e3b86ec0d521547abbd506c7aba8a114ba27eb2240aeac91be",
      "blockNumber": "0xe74c53",
      "from": "0xAe009d532328FF09e09E5d506aB5BBeC3c25c0FF",
      "to": "0x9f9A3E0e769144824a25ae3Fc319976F2e6c759f",
      "cumulativeGasUsed": "0x1cfaa4",
      "gasUsed": "0x72d4",
      "contractAddress": null,
      "logs": [],
      "status": "0x1",
      "logsBloom": "0x00000000000000000000000000000000000000000000000000000000000000000000000000000000000000000000000000000000000000000000000000000000000000000000000000000000000000000000000000000000000000000000000000000000000000000000000000000000000000000000000000000000000000000000000000000000000000000000000000000000000000000000000000000000000000000000000000000000000000000000000000000000000000000000000000000000000000000000000000000000000000000000000000000000000000000000000000000000000000000000000000000000000000000000000000000000",
      "type": "0x2",
      "effectiveGasPrice": "0x144aef8"
    },
    {
      "transactionHash": "0x7b55da08fc96e6f3bd0f02004c0dd147e1cf4eaea7fb363b0ef59a8c3c8c4d43",
      "transactionIndex": "0xe",
      "blockHash": "0x00384e9567ca86e3b86ec0d521547abbd506c7aba8a114ba27eb2240aeac91be",
      "blockNumber": "0xe74c53",
      "from": "0xAe009d532328FF09e09E5d506aB5BBeC3c25c0FF",
      "to": "0x9f9A3E0e769144824a25ae3Fc319976F2e6c759f",
      "cumulativeGasUsed": "0x1d6d78",
      "gasUsed": "0x72d4",
      "contractAddress": null,
      "logs": [],
      "status": "0x1",
      "logsBloom": "0x00000000000000000000000000000000000000000000000000000000000000000000000000000000000000000000000000000000000000000000000000000000000000000000000000000000000000000000000000000000000000000000000000000000000000000000000000000000000000000000000000000000000000000000000000000000000000000000000000000000000000000000000000000000000000000000000000000000000000000000000000000000000000000000000000000000000000000000000000000000000000000000000000000000000000000000000000000000000000000000000000000000000000000000000000000000",
      "type": "0x2",
      "effectiveGasPrice": "0x144aef8"
    },
    {
      "transactionHash": "0x82be46263e58ba8b74c6cc73601abfe6d2e467f1c1466aa3af61900a18e36d54",
      "transactionIndex": "0xf",
      "blockHash": "0x00384e9567ca86e3b86ec0d521547abbd506c7aba8a114ba27eb2240aeac91be",
      "blockNumber": "0xe74c53",
      "from": "0xAe009d532328FF09e09E5d506aB5BBeC3c25c0FF",
      "to": "0x9f9A3E0e769144824a25ae3Fc319976F2e6c759f",
      "cumulativeGasUsed": "0x1de04c",
      "gasUsed": "0x72d4",
      "contractAddress": null,
      "logs": [],
      "status": "0x1",
      "logsBloom": "0x00000000000000000000000000000000000000000000000000000000000000000000000000000000000000000000000000000000000000000000000000000000000000000000000000000000000000000000000000000000000000000000000000000000000000000000000000000000000000000000000000000000000000000000000000000000000000000000000000000000000000000000000000000000000000000000000000000000000000000000000000000000000000000000000000000000000000000000000000000000000000000000000000000000000000000000000000000000000000000000000000000000000000000000000000000000",
      "type": "0x2",
      "effectiveGasPrice": "0x144aef8"
    },
    {
      "transactionHash": "0xabf82819272179b6881b902ef86dc9e3555fcee51049a2d3bc5bc7d565430e02",
      "transactionIndex": "0x10",
      "blockHash": "0x00384e9567ca86e3b86ec0d521547abbd506c7aba8a114ba27eb2240aeac91be",
      "blockNumber": "0xe74c53",
      "from": "0xAe009d532328FF09e09E5d506aB5BBeC3c25c0FF",
      "to": "0x9f9A3E0e769144824a25ae3Fc319976F2e6c759f",
      "cumulativeGasUsed": "0x1e5320",
      "gasUsed": "0x72d4",
      "contractAddress": null,
      "logs": [],
      "status": "0x1",
      "logsBloom": "0x00000000000000000000000000000000000000000000000000000000000000000000000000000000000000000000000000000000000000000000000000000000000000000000000000000000000000000000000000000000000000000000000000000000000000000000000000000000000000000000000000000000000000000000000000000000000000000000000000000000000000000000000000000000000000000000000000000000000000000000000000000000000000000000000000000000000000000000000000000000000000000000000000000000000000000000000000000000000000000000000000000000000000000000000000000000",
      "type": "0x2",
      "effectiveGasPrice": "0x144aef8"
    },
    {
      "transactionHash": "0x02200a5e06b9bbde3e603d8721b13931b262782b25291333bd37914c4c158dfd",
      "transactionIndex": "0x11",
      "blockHash": "0x00384e9567ca86e3b86ec0d521547abbd506c7aba8a114ba27eb2240aeac91be",
      "blockNumber": "0xe74c53",
      "from": "0xAe009d532328FF09e09E5d506aB5BBeC3c25c0FF",
      "to": "0x9f9A3E0e769144824a25ae3Fc319976F2e6c759f",
      "cumulativeGasUsed": "0x1ec5f4",
      "gasUsed": "0x72d4",
      "contractAddress": null,
      "logs": [],
      "status": "0x1",
      "logsBloom": "0x00000000000000000000000000000000000000000000000000000000000000000000000000000000000000000000000000000000000000000000000000000000000000000000000000000000000000000000000000000000000000000000000000000000000000000000000000000000000000000000000000000000000000000000000000000000000000000000000000000000000000000000000000000000000000000000000000000000000000000000000000000000000000000000000000000000000000000000000000000000000000000000000000000000000000000000000000000000000000000000000000000000000000000000000000000000",
      "type": "0x2",
      "effectiveGasPrice": "0x144aef8"
    },
    {
      "transactionHash": "0xd681fbedf4ee44eacada789fecff11b69ecaeedb74fe66647be887b9c63a85ba",
      "transactionIndex": "0x12",
      "blockHash": "0x00384e9567ca86e3b86ec0d521547abbd506c7aba8a114ba27eb2240aeac91be",
      "blockNumber": "0xe74c53",
      "from": "0xAe009d532328FF09e09E5d506aB5BBeC3c25c0FF",
      "to": "0x9f9A3E0e769144824a25ae3Fc319976F2e6c759f",
      "cumulativeGasUsed": "0x1f38c8",
      "gasUsed": "0x72d4",
      "contractAddress": null,
      "logs": [],
      "status": "0x1",
      "logsBloom": "0x00000000000000000000000000000000000000000000000000000000000000000000000000000000000000000000000000000000000000000000000000000000000000000000000000000000000000000000000000000000000000000000000000000000000000000000000000000000000000000000000000000000000000000000000000000000000000000000000000000000000000000000000000000000000000000000000000000000000000000000000000000000000000000000000000000000000000000000000000000000000000000000000000000000000000000000000000000000000000000000000000000000000000000000000000000000",
      "type": "0x2",
      "effectiveGasPrice": "0x144aef8"
    },
    {
      "transactionHash": "0x803b4fc26a0b7680b795d816eb084e66dc3e18e4280a19e38c0f90d7df5ae25c",
      "transactionIndex": "0x13",
      "blockHash": "0x00384e9567ca86e3b86ec0d521547abbd506c7aba8a114ba27eb2240aeac91be",
      "blockNumber": "0xe74c53",
      "from": "0xAe009d532328FF09e09E5d506aB5BBeC3c25c0FF",
      "to": "0x9f9A3E0e769144824a25ae3Fc319976F2e6c759f",
      "cumulativeGasUsed": "0x1fab9c",
      "gasUsed": "0x72d4",
      "contractAddress": null,
      "logs": [],
      "status": "0x1",
      "logsBloom": "0x00000000000000000000000000000000000000000000000000000000000000000000000000000000000000000000000000000000000000000000000000000000000000000000000000000000000000000000000000000000000000000000000000000000000000000000000000000000000000000000000000000000000000000000000000000000000000000000000000000000000000000000000000000000000000000000000000000000000000000000000000000000000000000000000000000000000000000000000000000000000000000000000000000000000000000000000000000000000000000000000000000000000000000000000000000000",
      "type": "0x2",
      "effectiveGasPrice": "0x144aef8"
    },
    {
      "transactionHash": "0xbebd6178dc5b27e4f666dd09e95338cc24abeb9ee8974fb209e2e5cd3fed288e",
      "transactionIndex": "0x14",
      "blockHash": "0x00384e9567ca86e3b86ec0d521547abbd506c7aba8a114ba27eb2240aeac91be",
      "blockNumber": "0xe74c53",
      "from": "0xAe009d532328FF09e09E5d506aB5BBeC3c25c0FF",
      "to": "0x9f9A3E0e769144824a25ae3Fc319976F2e6c759f",
      "cumulativeGasUsed": "0x201e70",
      "gasUsed": "0x72d4",
      "contractAddress": null,
      "logs": [],
      "status": "0x1",
      "logsBloom": "0x00000000000000000000000000000000000000000000000000000000000000000000000000000000000000000000000000000000000000000000000000000000000000000000000000000000000000000000000000000000000000000000000000000000000000000000000000000000000000000000000000000000000000000000000000000000000000000000000000000000000000000000000000000000000000000000000000000000000000000000000000000000000000000000000000000000000000000000000000000000000000000000000000000000000000000000000000000000000000000000000000000000000000000000000000000000",
      "type": "0x2",
      "effectiveGasPrice": "0x144aef8"
    },
    {
      "transactionHash": "0xe593a35911fc5aa18b677beea4cbb55701fe2ea652766f06c300d3ca3941eb25",
      "transactionIndex": "0x15",
      "blockHash": "0x00384e9567ca86e3b86ec0d521547abbd506c7aba8a114ba27eb2240aeac91be",
      "blockNumber": "0xe74c53",
      "from": "0xAe009d532328FF09e09E5d506aB5BBeC3c25c0FF",
      "to": "0x9f9A3E0e769144824a25ae3Fc319976F2e6c759f",
      "cumulativeGasUsed": "0x209144",
      "gasUsed": "0x72d4",
      "contractAddress": null,
      "logs": [],
      "status": "0x1",
      "logsBloom": "0x00000000000000000000000000000000000000000000000000000000000000000000000000000000000000000000000000000000000000000000000000000000000000000000000000000000000000000000000000000000000000000000000000000000000000000000000000000000000000000000000000000000000000000000000000000000000000000000000000000000000000000000000000000000000000000000000000000000000000000000000000000000000000000000000000000000000000000000000000000000000000000000000000000000000000000000000000000000000000000000000000000000000000000000000000000000",
      "type": "0x2",
      "effectiveGasPrice": "0x144aef8"
    },
    {
      "transactionHash": "0xa8c1a980865ec727fd9b7f6eb8c428d79e8a62f4bcc2a28cf9f11d9cae219e01",
      "transactionIndex": "0x16",
      "blockHash": "0x00384e9567ca86e3b86ec0d521547abbd506c7aba8a114ba27eb2240aeac91be",
      "blockNumber": "0xe74c53",
      "from": "0xAe009d532328FF09e09E5d506aB5BBeC3c25c0FF",
      "to": "0x9f9A3E0e769144824a25ae3Fc319976F2e6c759f",
      "cumulativeGasUsed": "0x210418",
      "gasUsed": "0x72d4",
      "contractAddress": null,
      "logs": [],
      "status": "0x1",
      "logsBloom": "0x00000000000000000000000000000000000000000000000000000000000000000000000000000000000000000000000000000000000000000000000000000000000000000000000000000000000000000000000000000000000000000000000000000000000000000000000000000000000000000000000000000000000000000000000000000000000000000000000000000000000000000000000000000000000000000000000000000000000000000000000000000000000000000000000000000000000000000000000000000000000000000000000000000000000000000000000000000000000000000000000000000000000000000000000000000000",
      "type": "0x2",
      "effectiveGasPrice": "0x144aef8"
    },
    {
      "transactionHash": "0xa37c2f5d9c271212896d6e71a280c476669ce8d6486d6c732197c7ae5c54970c",
      "transactionIndex": "0x17",
      "blockHash": "0x00384e9567ca86e3b86ec0d521547abbd506c7aba8a114ba27eb2240aeac91be",
      "blockNumber": "0xe74c53",
      "from": "0xAe009d532328FF09e09E5d506aB5BBeC3c25c0FF",
      "to": "0x9f9A3E0e769144824a25ae3Fc319976F2e6c759f",
      "cumulativeGasUsed": "0x2176ec",
      "gasUsed": "0x72d4",
      "contractAddress": null,
      "logs": [],
      "status": "0x1",
      "logsBloom": "0x00000000000000000000000000000000000000000000000000000000000000000000000000000000000000000000000000000000000000000000000000000000000000000000000000000000000000000000000000000000000000000000000000000000000000000000000000000000000000000000000000000000000000000000000000000000000000000000000000000000000000000000000000000000000000000000000000000000000000000000000000000000000000000000000000000000000000000000000000000000000000000000000000000000000000000000000000000000000000000000000000000000000000000000000000000000",
      "type": "0x2",
      "effectiveGasPrice": "0x144aef8"
    },
    {
      "transactionHash": "0xfe90c2a3a39adbd57598def1d52ccfc9a6df58f8ac9657649c979c092c657e60",
      "transactionIndex": "0x18",
      "blockHash": "0x00384e9567ca86e3b86ec0d521547abbd506c7aba8a114ba27eb2240aeac91be",
      "blockNumber": "0xe74c53",
      "from": "0xAe009d532328FF09e09E5d506aB5BBeC3c25c0FF",
      "to": "0x9f9A3E0e769144824a25ae3Fc319976F2e6c759f",
      "cumulativeGasUsed": "0x21e9c0",
      "gasUsed": "0x72d4",
      "contractAddress": null,
      "logs": [],
      "status": "0x1",
      "logsBloom": "0x00000000000000000000000000000000000000000000000000000000000000000000000000000000000000000000000000000000000000000000000000000000000000000000000000000000000000000000000000000000000000000000000000000000000000000000000000000000000000000000000000000000000000000000000000000000000000000000000000000000000000000000000000000000000000000000000000000000000000000000000000000000000000000000000000000000000000000000000000000000000000000000000000000000000000000000000000000000000000000000000000000000000000000000000000000000",
      "type": "0x2",
      "effectiveGasPrice": "0x144aef8"
    },
    {
      "transactionHash": "0xd0af0004f226e980ea8de8ed464ad8f8ff46bcae15595d7d76efef864113b2cd",
      "transactionIndex": "0x19",
      "blockHash": "0x00384e9567ca86e3b86ec0d521547abbd506c7aba8a114ba27eb2240aeac91be",
      "blockNumber": "0xe74c53",
      "from": "0xAe009d532328FF09e09E5d506aB5BBeC3c25c0FF",
      "to": "0x9f9A3E0e769144824a25ae3Fc319976F2e6c759f",
      "cumulativeGasUsed": "0x225c94",
      "gasUsed": "0x72d4",
      "contractAddress": null,
      "logs": [],
      "status": "0x1",
      "logsBloom": "0x00000000000000000000000000000000000000000000000000000000000000000000000000000000000000000000000000000000000000000000000000000000000000000000000000000000000000000000000000000000000000000000000000000000000000000000000000000000000000000000000000000000000000000000000000000000000000000000000000000000000000000000000000000000000000000000000000000000000000000000000000000000000000000000000000000000000000000000000000000000000000000000000000000000000000000000000000000000000000000000000000000000000000000000000000000000",
      "type": "0x2",
      "effectiveGasPrice": "0x144aef8"
    },
    {
      "transactionHash": "0xf98d49be99cdd12403a864d0f459f7615c52c93a03f070c88b97d10cb9f1fe86",
      "transactionIndex": "0x1a",
      "blockHash": "0x00384e9567ca86e3b86ec0d521547abbd506c7aba8a114ba27eb2240aeac91be",
      "blockNumber": "0xe74c53",
      "from": "0xAe009d532328FF09e09E5d506aB5BBeC3c25c0FF",
      "to": "0x9f9A3E0e769144824a25ae3Fc319976F2e6c759f",
      "cumulativeGasUsed": "0x22cf68",
      "gasUsed": "0x72d4",
      "contractAddress": null,
      "logs": [],
      "status": "0x1",
      "logsBloom": "0x00000000000000000000000000000000000000000000000000000000000000000000000000000000000000000000000000000000000000000000000000000000000000000000000000000000000000000000000000000000000000000000000000000000000000000000000000000000000000000000000000000000000000000000000000000000000000000000000000000000000000000000000000000000000000000000000000000000000000000000000000000000000000000000000000000000000000000000000000000000000000000000000000000000000000000000000000000000000000000000000000000000000000000000000000000000",
      "type": "0x2",
      "effectiveGasPrice": "0x144aef8"
    },
    {
      "transactionHash": "0xe0429df6d9c7eb353d6eec007fc305fa10fd1128ee9c75c3c79adf86c4c47e70",
      "transactionIndex": "0x1b",
      "blockHash": "0x00384e9567ca86e3b86ec0d521547abbd506c7aba8a114ba27eb2240aeac91be",
      "blockNumber": "0xe74c53",
      "from": "0xAe009d532328FF09e09E5d506aB5BBeC3c25c0FF",
      "to": "0x9f9A3E0e769144824a25ae3Fc319976F2e6c759f",
      "cumulativeGasUsed": "0x23423c",
      "gasUsed": "0x72d4",
      "contractAddress": null,
      "logs": [],
      "status": "0x1",
      "logsBloom": "0x00000000000000000000000000000000000000000000000000000000000000000000000000000000000000000000000000000000000000000000000000000000000000000000000000000000000000000000000000000000000000000000000000000000000000000000000000000000000000000000000000000000000000000000000000000000000000000000000000000000000000000000000000000000000000000000000000000000000000000000000000000000000000000000000000000000000000000000000000000000000000000000000000000000000000000000000000000000000000000000000000000000000000000000000000000000",
      "type": "0x2",
      "effectiveGasPrice": "0x144aef8"
    },
    {
      "transactionHash": "0x567bd95f34d5344f7d1490208d7c0deb3e330efbe061b8fee23d1097881aab14",
      "transactionIndex": "0x1c",
      "blockHash": "0x00384e9567ca86e3b86ec0d521547abbd506c7aba8a114ba27eb2240aeac91be",
      "blockNumber": "0xe74c53",
      "from": "0xAe009d532328FF09e09E5d506aB5BBeC3c25c0FF",
      "to": "0x9f9A3E0e769144824a25ae3Fc319976F2e6c759f",
      "cumulativeGasUsed": "0x23b510",
      "gasUsed": "0x72d4",
      "contractAddress": null,
      "logs": [],
      "status": "0x1",
      "logsBloom": "0x00000000000000000000000000000000000000000000000000000000000000000000000000000000000000000000000000000000000000000000000000000000000000000000000000000000000000000000000000000000000000000000000000000000000000000000000000000000000000000000000000000000000000000000000000000000000000000000000000000000000000000000000000000000000000000000000000000000000000000000000000000000000000000000000000000000000000000000000000000000000000000000000000000000000000000000000000000000000000000000000000000000000000000000000000000000",
      "type": "0x2",
      "effectiveGasPrice": "0x144aef8"
    },
    {
      "transactionHash": "0xe7d57e9bdca423696f6bcf0da525939fafac6b1135a7d36a54cd216bd6489e4c",
      "transactionIndex": "0x1d",
      "blockHash": "0x00384e9567ca86e3b86ec0d521547abbd506c7aba8a114ba27eb2240aeac91be",
      "blockNumber": "0xe74c53",
      "from": "0xAe009d532328FF09e09E5d506aB5BBeC3c25c0FF",
      "to": "0x9f9A3E0e769144824a25ae3Fc319976F2e6c759f",
      "cumulativeGasUsed": "0x2427e4",
      "gasUsed": "0x72d4",
      "contractAddress": null,
      "logs": [],
      "status": "0x1",
      "logsBloom": "0x00000000000000000000000000000000000000000000000000000000000000000000000000000000000000000000000000000000000000000000000000000000000000000000000000000000000000000000000000000000000000000000000000000000000000000000000000000000000000000000000000000000000000000000000000000000000000000000000000000000000000000000000000000000000000000000000000000000000000000000000000000000000000000000000000000000000000000000000000000000000000000000000000000000000000000000000000000000000000000000000000000000000000000000000000000000",
      "type": "0x2",
      "effectiveGasPrice": "0x144aef8"
    },
    {
      "transactionHash": "0x6e05f818244f80447c885538c20c8188eda3de2d338d5512e9c69b9525661cbd",
      "transactionIndex": "0x1e",
      "blockHash": "0x00384e9567ca86e3b86ec0d521547abbd506c7aba8a114ba27eb2240aeac91be",
      "blockNumber": "0xe74c53",
      "from": "0xAe009d532328FF09e09E5d506aB5BBeC3c25c0FF",
      "to": "0x9f9A3E0e769144824a25ae3Fc319976F2e6c759f",
      "cumulativeGasUsed": "0x249ab8",
      "gasUsed": "0x72d4",
      "contractAddress": null,
      "logs": [],
      "status": "0x1",
      "logsBloom": "0x00000000000000000000000000000000000000000000000000000000000000000000000000000000000000000000000000000000000000000000000000000000000000000000000000000000000000000000000000000000000000000000000000000000000000000000000000000000000000000000000000000000000000000000000000000000000000000000000000000000000000000000000000000000000000000000000000000000000000000000000000000000000000000000000000000000000000000000000000000000000000000000000000000000000000000000000000000000000000000000000000000000000000000000000000000000",
      "type": "0x2",
      "effectiveGasPrice": "0x144aef8"
    },
    {
      "transactionHash": "0x163bae5b978e3109defc095a5c64405e124bcf6ac575a601ba9a20250065d4aa",
      "transactionIndex": "0x1f",
      "blockHash": "0x00384e9567ca86e3b86ec0d521547abbd506c7aba8a114ba27eb2240aeac91be",
      "blockNumber": "0xe74c53",
      "from": "0xAe009d532328FF09e09E5d506aB5BBeC3c25c0FF",
      "to": "0x9f9A3E0e769144824a25ae3Fc319976F2e6c759f",
      "cumulativeGasUsed": "0x250d8c",
      "gasUsed": "0x72d4",
      "contractAddress": null,
      "logs": [],
      "status": "0x1",
      "logsBloom": "0x00000000000000000000000000000000000000000000000000000000000000000000000000000000000000000000000000000000000000000000000000000000000000000000000000000000000000000000000000000000000000000000000000000000000000000000000000000000000000000000000000000000000000000000000000000000000000000000000000000000000000000000000000000000000000000000000000000000000000000000000000000000000000000000000000000000000000000000000000000000000000000000000000000000000000000000000000000000000000000000000000000000000000000000000000000000",
      "type": "0x2",
      "effectiveGasPrice": "0x144aef8"
    },
    {
      "transactionHash": "0x9a39c96fa46e1aded7fddd8a3a97830825d435f1f2161807617d3e7d99e51348",
      "transactionIndex": "0x20",
      "blockHash": "0x00384e9567ca86e3b86ec0d521547abbd506c7aba8a114ba27eb2240aeac91be",
      "blockNumber": "0xe74c53",
      "from": "0xAe009d532328FF09e09E5d506aB5BBeC3c25c0FF",
      "to": "0x9f9A3E0e769144824a25ae3Fc319976F2e6c759f",
      "cumulativeGasUsed": "0x258060",
      "gasUsed": "0x72d4",
      "contractAddress": null,
      "logs": [],
      "status": "0x1",
      "logsBloom": "0x00000000000000000000000000000000000000000000000000000000000000000000000000000000000000000000000000000000000000000000000000000000000000000000000000000000000000000000000000000000000000000000000000000000000000000000000000000000000000000000000000000000000000000000000000000000000000000000000000000000000000000000000000000000000000000000000000000000000000000000000000000000000000000000000000000000000000000000000000000000000000000000000000000000000000000000000000000000000000000000000000000000000000000000000000000000",
      "type": "0x2",
      "effectiveGasPrice": "0x144aef8"
    },
    {
      "transactionHash": "0x85304d72cb3210fb7bfd540c7c0cc1c7ca72a7c9db03260319530b5dae8ff28e",
      "transactionIndex": "0x21",
      "blockHash": "0x00384e9567ca86e3b86ec0d521547abbd506c7aba8a114ba27eb2240aeac91be",
      "blockNumber": "0xe74c53",
      "from": "0xAe009d532328FF09e09E5d506aB5BBeC3c25c0FF",
      "to": "0x9f9A3E0e769144824a25ae3Fc319976F2e6c759f",
      "cumulativeGasUsed": "0x25f334",
      "gasUsed": "0x72d4",
      "contractAddress": null,
      "logs": [],
      "status": "0x1",
      "logsBloom": "0x00000000000000000000000000000000000000000000000000000000000000000000000000000000000000000000000000000000000000000000000000000000000000000000000000000000000000000000000000000000000000000000000000000000000000000000000000000000000000000000000000000000000000000000000000000000000000000000000000000000000000000000000000000000000000000000000000000000000000000000000000000000000000000000000000000000000000000000000000000000000000000000000000000000000000000000000000000000000000000000000000000000000000000000000000000000",
      "type": "0x2",
      "effectiveGasPrice": "0x144aef8"
    },
    {
      "transactionHash": "0x9aaf98dd4283902e15345926210977c2826596d782e20508958f196821afde80",
      "transactionIndex": "0x22",
      "blockHash": "0x00384e9567ca86e3b86ec0d521547abbd506c7aba8a114ba27eb2240aeac91be",
      "blockNumber": "0xe74c53",
      "from": "0xAe009d532328FF09e09E5d506aB5BBeC3c25c0FF",
      "to": "0x9f9A3E0e769144824a25ae3Fc319976F2e6c759f",
      "cumulativeGasUsed": "0x266608",
      "gasUsed": "0x72d4",
      "contractAddress": null,
      "logs": [],
      "status": "0x1",
      "logsBloom": "0x00000000000000000000000000000000000000000000000000000000000000000000000000000000000000000000000000000000000000000000000000000000000000000000000000000000000000000000000000000000000000000000000000000000000000000000000000000000000000000000000000000000000000000000000000000000000000000000000000000000000000000000000000000000000000000000000000000000000000000000000000000000000000000000000000000000000000000000000000000000000000000000000000000000000000000000000000000000000000000000000000000000000000000000000000000000",
      "type": "0x2",
      "effectiveGasPrice": "0x144aef8"
    },
    {
      "transactionHash": "0x5bbb826f4618a6f955b00f86c5df1342204951df3f9c9a8d711c94885c6b31ad",
      "transactionIndex": "0x23",
      "blockHash": "0x00384e9567ca86e3b86ec0d521547abbd506c7aba8a114ba27eb2240aeac91be",
      "blockNumber": "0xe74c53",
      "from": "0xAe009d532328FF09e09E5d506aB5BBeC3c25c0FF",
      "to": "0x9f9A3E0e769144824a25ae3Fc319976F2e6c759f",
      "cumulativeGasUsed": "0x26d8dc",
      "gasUsed": "0x72d4",
      "contractAddress": null,
      "logs": [],
      "status": "0x1",
      "logsBloom": "0x00000000000000000000000000000000000000000000000000000000000000000000000000000000000000000000000000000000000000000000000000000000000000000000000000000000000000000000000000000000000000000000000000000000000000000000000000000000000000000000000000000000000000000000000000000000000000000000000000000000000000000000000000000000000000000000000000000000000000000000000000000000000000000000000000000000000000000000000000000000000000000000000000000000000000000000000000000000000000000000000000000000000000000000000000000000",
      "type": "0x2",
      "effectiveGasPrice": "0x144aef8"
    },
    {
      "transactionHash": "0x692ec248c5db6c545554cf526fa380f03ef4d2a7a6fb820c96f271928c082739",
      "transactionIndex": "0x24",
      "blockHash": "0x00384e9567ca86e3b86ec0d521547abbd506c7aba8a114ba27eb2240aeac91be",
      "blockNumber": "0xe74c53",
      "from": "0xAe009d532328FF09e09E5d506aB5BBeC3c25c0FF",
      "to": "0x9f9A3E0e769144824a25ae3Fc319976F2e6c759f",
      "cumulativeGasUsed": "0x274bb0",
      "gasUsed": "0x72d4",
      "contractAddress": null,
      "logs": [],
      "status": "0x1",
      "logsBloom": "0x00000000000000000000000000000000000000000000000000000000000000000000000000000000000000000000000000000000000000000000000000000000000000000000000000000000000000000000000000000000000000000000000000000000000000000000000000000000000000000000000000000000000000000000000000000000000000000000000000000000000000000000000000000000000000000000000000000000000000000000000000000000000000000000000000000000000000000000000000000000000000000000000000000000000000000000000000000000000000000000000000000000000000000000000000000000",
      "type": "0x2",
      "effectiveGasPrice": "0x144aef8"
    },
    {
      "transactionHash": "0x6821ae768da61d5a0d2397a5dbdf0271a13203fde6899ada56bb7a53d18893bf",
      "transactionIndex": "0x25",
      "blockHash": "0x00384e9567ca86e3b86ec0d521547abbd506c7aba8a114ba27eb2240aeac91be",
      "blockNumber": "0xe74c53",
      "from": "0xAe009d532328FF09e09E5d506aB5BBeC3c25c0FF",
      "to": "0x9f9A3E0e769144824a25ae3Fc319976F2e6c759f",
      "cumulativeGasUsed": "0x27be84",
      "gasUsed": "0x72d4",
      "contractAddress": null,
      "logs": [],
      "status": "0x1",
      "logsBloom": "0x00000000000000000000000000000000000000000000000000000000000000000000000000000000000000000000000000000000000000000000000000000000000000000000000000000000000000000000000000000000000000000000000000000000000000000000000000000000000000000000000000000000000000000000000000000000000000000000000000000000000000000000000000000000000000000000000000000000000000000000000000000000000000000000000000000000000000000000000000000000000000000000000000000000000000000000000000000000000000000000000000000000000000000000000000000000",
      "type": "0x2",
      "effectiveGasPrice": "0x144aef8"
    },
    {
      "transactionHash": "0x2472718d5582c6b1f1d770eb1781ab6c2da809631e2ed500c578db853de6a47d",
      "transactionIndex": "0x26",
      "blockHash": "0x00384e9567ca86e3b86ec0d521547abbd506c7aba8a114ba27eb2240aeac91be",
      "blockNumber": "0xe74c53",
      "from": "0xAe009d532328FF09e09E5d506aB5BBeC3c25c0FF",
      "to": "0x9f9A3E0e769144824a25ae3Fc319976F2e6c759f",
      "cumulativeGasUsed": "0x283158",
      "gasUsed": "0x72d4",
      "contractAddress": null,
      "logs": [],
      "status": "0x1",
      "logsBloom": "0x00000000000000000000000000000000000000000000000000000000000000000000000000000000000000000000000000000000000000000000000000000000000000000000000000000000000000000000000000000000000000000000000000000000000000000000000000000000000000000000000000000000000000000000000000000000000000000000000000000000000000000000000000000000000000000000000000000000000000000000000000000000000000000000000000000000000000000000000000000000000000000000000000000000000000000000000000000000000000000000000000000000000000000000000000000000",
      "type": "0x2",
      "effectiveGasPrice": "0x144aef8"
    },
    {
      "transactionHash": "0x66ec5df58eb6ef039b24752ff00e9d421090a86d9a08ac854d1b3836355eab12",
      "transactionIndex": "0x27",
      "blockHash": "0x00384e9567ca86e3b86ec0d521547abbd506c7aba8a114ba27eb2240aeac91be",
      "blockNumber": "0xe74c53",
      "from": "0xAe009d532328FF09e09E5d506aB5BBeC3c25c0FF",
      "to": "0x9f9A3E0e769144824a25ae3Fc319976F2e6c759f",
      "cumulativeGasUsed": "0x28a42c",
      "gasUsed": "0x72d4",
      "contractAddress": null,
      "logs": [],
      "status": "0x1",
      "logsBloom": "0x00000000000000000000000000000000000000000000000000000000000000000000000000000000000000000000000000000000000000000000000000000000000000000000000000000000000000000000000000000000000000000000000000000000000000000000000000000000000000000000000000000000000000000000000000000000000000000000000000000000000000000000000000000000000000000000000000000000000000000000000000000000000000000000000000000000000000000000000000000000000000000000000000000000000000000000000000000000000000000000000000000000000000000000000000000000",
      "type": "0x2",
      "effectiveGasPrice": "0x144aef8"
    },
    {
      "transactionHash": "0x23536a09ac59fd01fe8211fde4036f6bc32d0df456665f8914664092a6ca70ed",
      "transactionIndex": "0x28",
      "blockHash": "0x00384e9567ca86e3b86ec0d521547abbd506c7aba8a114ba27eb2240aeac91be",
      "blockNumber": "0xe74c53",
      "from": "0xAe009d532328FF09e09E5d506aB5BBeC3c25c0FF",
      "to": "0x9f9A3E0e769144824a25ae3Fc319976F2e6c759f",
      "cumulativeGasUsed": "0x291700",
      "gasUsed": "0x72d4",
      "contractAddress": null,
      "logs": [],
      "status": "0x1",
      "logsBloom": "0x00000000000000000000000000000000000000000000000000000000000000000000000000000000000000000000000000000000000000000000000000000000000000000000000000000000000000000000000000000000000000000000000000000000000000000000000000000000000000000000000000000000000000000000000000000000000000000000000000000000000000000000000000000000000000000000000000000000000000000000000000000000000000000000000000000000000000000000000000000000000000000000000000000000000000000000000000000000000000000000000000000000000000000000000000000000",
      "type": "0x2",
      "effectiveGasPrice": "0x144aef8"
    },
    {
      "transactionHash": "0x1e9da7185a87762eef5e512056a929c81d7fc71206512df2b1ff58bdd3fcb97c",
      "transactionIndex": "0x29",
      "blockHash": "0x00384e9567ca86e3b86ec0d521547abbd506c7aba8a114ba27eb2240aeac91be",
      "blockNumber": "0xe74c53",
      "from": "0xAe009d532328FF09e09E5d506aB5BBeC3c25c0FF",
      "to": "0x9f9A3E0e769144824a25ae3Fc319976F2e6c759f",
      "cumulativeGasUsed": "0x2989d4",
      "gasUsed": "0x72d4",
      "contractAddress": null,
      "logs": [],
      "status": "0x1",
      "logsBloom": "0x00000000000000000000000000000000000000000000000000000000000000000000000000000000000000000000000000000000000000000000000000000000000000000000000000000000000000000000000000000000000000000000000000000000000000000000000000000000000000000000000000000000000000000000000000000000000000000000000000000000000000000000000000000000000000000000000000000000000000000000000000000000000000000000000000000000000000000000000000000000000000000000000000000000000000000000000000000000000000000000000000000000000000000000000000000000",
      "type": "0x2",
      "effectiveGasPrice": "0x144aef8"
    },
    {
      "transactionHash": "0x9a65b2dba76b0718659d66a19cedeb044a387f2ca06c12a9a246976046ca0acc",
      "transactionIndex": "0x2a",
      "blockHash": "0x00384e9567ca86e3b86ec0d521547abbd506c7aba8a114ba27eb2240aeac91be",
      "blockNumber": "0xe74c53",
      "from": "0xAe009d532328FF09e09E5d506aB5BBeC3c25c0FF",
      "to": "0x9f9A3E0e769144824a25ae3Fc319976F2e6c759f",
      "cumulativeGasUsed": "0x29fca8",
      "gasUsed": "0x72d4",
      "contractAddress": null,
      "logs": [],
      "status": "0x1",
      "logsBloom": "0x00000000000000000000000000000000000000000000000000000000000000000000000000000000000000000000000000000000000000000000000000000000000000000000000000000000000000000000000000000000000000000000000000000000000000000000000000000000000000000000000000000000000000000000000000000000000000000000000000000000000000000000000000000000000000000000000000000000000000000000000000000000000000000000000000000000000000000000000000000000000000000000000000000000000000000000000000000000000000000000000000000000000000000000000000000000",
      "type": "0x2",
      "effectiveGasPrice": "0x144aef8"
    },
    {
      "transactionHash": "0xaaf0cdd34fac9b58327f594330fe8e3f55a9b807f18ab09b9a88e3ba8e01ca88",
      "transactionIndex": "0x2b",
      "blockHash": "0x00384e9567ca86e3b86ec0d521547abbd506c7aba8a114ba27eb2240aeac91be",
      "blockNumber": "0xe74c53",
      "from": "0xAe009d532328FF09e09E5d506aB5BBeC3c25c0FF",
      "to": "0x9f9A3E0e769144824a25ae3Fc319976F2e6c759f",
      "cumulativeGasUsed": "0x2a6f7c",
      "gasUsed": "0x72d4",
      "contractAddress": null,
      "logs": [],
      "status": "0x1",
      "logsBloom": "0x00000000000000000000000000000000000000000000000000000000000000000000000000000000000000000000000000000000000000000000000000000000000000000000000000000000000000000000000000000000000000000000000000000000000000000000000000000000000000000000000000000000000000000000000000000000000000000000000000000000000000000000000000000000000000000000000000000000000000000000000000000000000000000000000000000000000000000000000000000000000000000000000000000000000000000000000000000000000000000000000000000000000000000000000000000000",
      "type": "0x2",
      "effectiveGasPrice": "0x144aef8"
    },
    {
      "transactionHash": "0x3c2fd44abb54d0e839685f17221d911723f62f478580c227b340536fb1f17bb7",
      "transactionIndex": "0x2c",
      "blockHash": "0x00384e9567ca86e3b86ec0d521547abbd506c7aba8a114ba27eb2240aeac91be",
      "blockNumber": "0xe74c53",
      "from": "0xAe009d532328FF09e09E5d506aB5BBeC3c25c0FF",
      "to": "0x9f9A3E0e769144824a25ae3Fc319976F2e6c759f",
      "cumulativeGasUsed": "0x2ae250",
      "gasUsed": "0x72d4",
      "contractAddress": null,
      "logs": [],
      "status": "0x1",
      "logsBloom": "0x00000000000000000000000000000000000000000000000000000000000000000000000000000000000000000000000000000000000000000000000000000000000000000000000000000000000000000000000000000000000000000000000000000000000000000000000000000000000000000000000000000000000000000000000000000000000000000000000000000000000000000000000000000000000000000000000000000000000000000000000000000000000000000000000000000000000000000000000000000000000000000000000000000000000000000000000000000000000000000000000000000000000000000000000000000000",
      "type": "0x2",
      "effectiveGasPrice": "0x144aef8"
    },
    {
      "transactionHash": "0x374081a735052996e5b9b01f930bdbd61201c07165c1b83f4e18d403a5c6dfbb",
      "transactionIndex": "0x2d",
      "blockHash": "0x00384e9567ca86e3b86ec0d521547abbd506c7aba8a114ba27eb2240aeac91be",
      "blockNumber": "0xe74c53",
      "from": "0xAe009d532328FF09e09E5d506aB5BBeC3c25c0FF",
      "to": "0x9f9A3E0e769144824a25ae3Fc319976F2e6c759f",
      "cumulativeGasUsed": "0x2b5524",
      "gasUsed": "0x72d4",
      "contractAddress": null,
      "logs": [],
      "status": "0x1",
      "logsBloom": "0x00000000000000000000000000000000000000000000000000000000000000000000000000000000000000000000000000000000000000000000000000000000000000000000000000000000000000000000000000000000000000000000000000000000000000000000000000000000000000000000000000000000000000000000000000000000000000000000000000000000000000000000000000000000000000000000000000000000000000000000000000000000000000000000000000000000000000000000000000000000000000000000000000000000000000000000000000000000000000000000000000000000000000000000000000000000",
      "type": "0x2",
      "effectiveGasPrice": "0x144aef8"
    },
    {
      "transactionHash": "0x5c7bff4c555ce7fdb750a800ab30e6a760fba901ff7ec61e1fd0b37f3e30f1e1",
      "transactionIndex": "0x2e",
      "blockHash": "0x00384e9567ca86e3b86ec0d521547abbd506c7aba8a114ba27eb2240aeac91be",
      "blockNumber": "0xe74c53",
      "from": "0xAe009d532328FF09e09E5d506aB5BBeC3c25c0FF",
      "to": "0x9f9A3E0e769144824a25ae3Fc319976F2e6c759f",
      "cumulativeGasUsed": "0x2bc7f8",
      "gasUsed": "0x72d4",
      "contractAddress": null,
      "logs": [],
      "status": "0x1",
      "logsBloom": "0x00000000000000000000000000000000000000000000000000000000000000000000000000000000000000000000000000000000000000000000000000000000000000000000000000000000000000000000000000000000000000000000000000000000000000000000000000000000000000000000000000000000000000000000000000000000000000000000000000000000000000000000000000000000000000000000000000000000000000000000000000000000000000000000000000000000000000000000000000000000000000000000000000000000000000000000000000000000000000000000000000000000000000000000000000000000",
      "type": "0x2",
      "effectiveGasPrice": "0x144aef8"
    },
    {
      "transactionHash": "0x5c2d16885634fdbd7dcf7d747f17619921ecc04ae3e6affac82433b1640d436c",
      "transactionIndex": "0x2f",
      "blockHash": "0x00384e9567ca86e3b86ec0d521547abbd506c7aba8a114ba27eb2240aeac91be",
      "blockNumber": "0xe74c53",
      "from": "0xAe009d532328FF09e09E5d506aB5BBeC3c25c0FF",
      "to": "0x9f9A3E0e769144824a25ae3Fc319976F2e6c759f",
      "cumulativeGasUsed": "0x2c3acc",
      "gasUsed": "0x72d4",
      "contractAddress": null,
      "logs": [],
      "status": "0x1",
      "logsBloom": "0x00000000000000000000000000000000000000000000000000000000000000000000000000000000000000000000000000000000000000000000000000000000000000000000000000000000000000000000000000000000000000000000000000000000000000000000000000000000000000000000000000000000000000000000000000000000000000000000000000000000000000000000000000000000000000000000000000000000000000000000000000000000000000000000000000000000000000000000000000000000000000000000000000000000000000000000000000000000000000000000000000000000000000000000000000000000",
      "type": "0x2",
      "effectiveGasPrice": "0x144aef8"
    },
    {
      "transactionHash": "0x9cef00683753fb7027355727cb6baaa1e68087c0d083c4f0be149c1a3e90d77f",
      "transactionIndex": "0x30",
      "blockHash": "0x00384e9567ca86e3b86ec0d521547abbd506c7aba8a114ba27eb2240aeac91be",
      "blockNumber": "0xe74c53",
      "from": "0xAe009d532328FF09e09E5d506aB5BBeC3c25c0FF",
      "to": "0x9f9A3E0e769144824a25ae3Fc319976F2e6c759f",
      "cumulativeGasUsed": "0x2cada0",
      "gasUsed": "0x72d4",
      "contractAddress": null,
      "logs": [],
      "status": "0x1",
      "logsBloom": "0x00000000000000000000000000000000000000000000000000000000000000000000000000000000000000000000000000000000000000000000000000000000000000000000000000000000000000000000000000000000000000000000000000000000000000000000000000000000000000000000000000000000000000000000000000000000000000000000000000000000000000000000000000000000000000000000000000000000000000000000000000000000000000000000000000000000000000000000000000000000000000000000000000000000000000000000000000000000000000000000000000000000000000000000000000000000",
      "type": "0x2",
      "effectiveGasPrice": "0x144aef8"
    },
    {
      "transactionHash": "0x5dd700ec8f737c7696332eadfa729b87d44dd0997f041a712706c84da68d37ab",
      "transactionIndex": "0x31",
      "blockHash": "0x00384e9567ca86e3b86ec0d521547abbd506c7aba8a114ba27eb2240aeac91be",
      "blockNumber": "0xe74c53",
      "from": "0xAe009d532328FF09e09E5d506aB5BBeC3c25c0FF",
      "to": "0x9f9A3E0e769144824a25ae3Fc319976F2e6c759f",
      "cumulativeGasUsed": "0x2d2074",
      "gasUsed": "0x72d4",
      "contractAddress": null,
      "logs": [],
      "status": "0x1",
      "logsBloom": "0x00000000000000000000000000000000000000000000000000000000000000000000000000000000000000000000000000000000000000000000000000000000000000000000000000000000000000000000000000000000000000000000000000000000000000000000000000000000000000000000000000000000000000000000000000000000000000000000000000000000000000000000000000000000000000000000000000000000000000000000000000000000000000000000000000000000000000000000000000000000000000000000000000000000000000000000000000000000000000000000000000000000000000000000000000000000",
      "type": "0x2",
      "effectiveGasPrice": "0x144aef8"
    },
    {
      "transactionHash": "0xe358bbf4541ca310cd1e03688e8708448ddc6e667ca728789354b60072244b89",
      "transactionIndex": "0x32",
      "blockHash": "0x00384e9567ca86e3b86ec0d521547abbd506c7aba8a114ba27eb2240aeac91be",
      "blockNumber": "0xe74c53",
      "from": "0xAe009d532328FF09e09E5d506aB5BBeC3c25c0FF",
      "to": "0x9f9A3E0e769144824a25ae3Fc319976F2e6c759f",
      "cumulativeGasUsed": "0x2d9348",
      "gasUsed": "0x72d4",
      "contractAddress": null,
      "logs": [],
      "status": "0x1",
      "logsBloom": "0x00000000000000000000000000000000000000000000000000000000000000000000000000000000000000000000000000000000000000000000000000000000000000000000000000000000000000000000000000000000000000000000000000000000000000000000000000000000000000000000000000000000000000000000000000000000000000000000000000000000000000000000000000000000000000000000000000000000000000000000000000000000000000000000000000000000000000000000000000000000000000000000000000000000000000000000000000000000000000000000000000000000000000000000000000000000",
      "type": "0x2",
      "effectiveGasPrice": "0x144aef8"
    },
    {
      "transactionHash": "0xce1768058727df9f6db44b34eea9ae6010b4bd172db04743960a55ac766516a9",
      "transactionIndex": "0x33",
      "blockHash": "0x00384e9567ca86e3b86ec0d521547abbd506c7aba8a114ba27eb2240aeac91be",
      "blockNumber": "0xe74c53",
      "from": "0xAe009d532328FF09e09E5d506aB5BBeC3c25c0FF",
      "to": "0x9f9A3E0e769144824a25ae3Fc319976F2e6c759f",
      "cumulativeGasUsed": "0x2e061c",
      "gasUsed": "0x72d4",
      "contractAddress": null,
      "logs": [],
      "status": "0x1",
      "logsBloom": "0x00000000000000000000000000000000000000000000000000000000000000000000000000000000000000000000000000000000000000000000000000000000000000000000000000000000000000000000000000000000000000000000000000000000000000000000000000000000000000000000000000000000000000000000000000000000000000000000000000000000000000000000000000000000000000000000000000000000000000000000000000000000000000000000000000000000000000000000000000000000000000000000000000000000000000000000000000000000000000000000000000000000000000000000000000000000",
      "type": "0x2",
      "effectiveGasPrice": "0x144aef8"
    },
    {
      "transactionHash": "0xb150f86d078e98cf7bff18a7bd868587f340f63b140fb8a67125897655b0e46d",
      "transactionIndex": "0x34",
      "blockHash": "0x00384e9567ca86e3b86ec0d521547abbd506c7aba8a114ba27eb2240aeac91be",
      "blockNumber": "0xe74c53",
      "from": "0xAe009d532328FF09e09E5d506aB5BBeC3c25c0FF",
      "to": "0x9f9A3E0e769144824a25ae3Fc319976F2e6c759f",
      "cumulativeGasUsed": "0x2e78f0",
      "gasUsed": "0x72d4",
      "contractAddress": null,
      "logs": [],
      "status": "0x1",
      "logsBloom": "0x00000000000000000000000000000000000000000000000000000000000000000000000000000000000000000000000000000000000000000000000000000000000000000000000000000000000000000000000000000000000000000000000000000000000000000000000000000000000000000000000000000000000000000000000000000000000000000000000000000000000000000000000000000000000000000000000000000000000000000000000000000000000000000000000000000000000000000000000000000000000000000000000000000000000000000000000000000000000000000000000000000000000000000000000000000000",
      "type": "0x2",
      "effectiveGasPrice": "0x144aef8"
    },
    {
      "transactionHash": "0x40127fd83bcb8b694af244a9393f543ce3cccc19ebe77ee6893e27b2539879ec",
      "transactionIndex": "0x35",
      "blockHash": "0x00384e9567ca86e3b86ec0d521547abbd506c7aba8a114ba27eb2240aeac91be",
      "blockNumber": "0xe74c53",
      "from": "0xAe009d532328FF09e09E5d506aB5BBeC3c25c0FF",
      "to": "0x9f9A3E0e769144824a25ae3Fc319976F2e6c759f",
      "cumulativeGasUsed": "0x2eebc4",
      "gasUsed": "0x72d4",
      "contractAddress": null,
      "logs": [],
      "status": "0x1",
      "logsBloom": "0x00000000000000000000000000000000000000000000000000000000000000000000000000000000000000000000000000000000000000000000000000000000000000000000000000000000000000000000000000000000000000000000000000000000000000000000000000000000000000000000000000000000000000000000000000000000000000000000000000000000000000000000000000000000000000000000000000000000000000000000000000000000000000000000000000000000000000000000000000000000000000000000000000000000000000000000000000000000000000000000000000000000000000000000000000000000",
      "type": "0x2",
      "effectiveGasPrice": "0x144aef8"
    },
    {
      "transactionHash": "0x32a51af84d227acf42a477b870239a049b64847cbbf014f3b992b87f7dbf9fba",
      "transactionIndex": "0x36",
      "blockHash": "0x00384e9567ca86e3b86ec0d521547abbd506c7aba8a114ba27eb2240aeac91be",
      "blockNumber": "0xe74c53",
      "from": "0xAe009d532328FF09e09E5d506aB5BBeC3c25c0FF",
      "to": "0x9f9A3E0e769144824a25ae3Fc319976F2e6c759f",
      "cumulativeGasUsed": "0x2f5e98",
      "gasUsed": "0x72d4",
      "contractAddress": null,
      "logs": [],
      "status": "0x1",
      "logsBloom": "0x00000000000000000000000000000000000000000000000000000000000000000000000000000000000000000000000000000000000000000000000000000000000000000000000000000000000000000000000000000000000000000000000000000000000000000000000000000000000000000000000000000000000000000000000000000000000000000000000000000000000000000000000000000000000000000000000000000000000000000000000000000000000000000000000000000000000000000000000000000000000000000000000000000000000000000000000000000000000000000000000000000000000000000000000000000000",
      "type": "0x2",
      "effectiveGasPrice": "0x144aef8"
    },
    {
      "transactionHash": "0xfe80db139a29bc91e1b1a84e0a11dc3c8e612320615f894de1897793987daf19",
      "transactionIndex": "0x37",
      "blockHash": "0x00384e9567ca86e3b86ec0d521547abbd506c7aba8a114ba27eb2240aeac91be",
      "blockNumber": "0xe74c53",
      "from": "0xAe009d532328FF09e09E5d506aB5BBeC3c25c0FF",
      "to": "0x9f9A3E0e769144824a25ae3Fc319976F2e6c759f",
      "cumulativeGasUsed": "0x2fd16c",
      "gasUsed": "0x72d4",
      "contractAddress": null,
      "logs": [],
      "status": "0x1",
      "logsBloom": "0x00000000000000000000000000000000000000000000000000000000000000000000000000000000000000000000000000000000000000000000000000000000000000000000000000000000000000000000000000000000000000000000000000000000000000000000000000000000000000000000000000000000000000000000000000000000000000000000000000000000000000000000000000000000000000000000000000000000000000000000000000000000000000000000000000000000000000000000000000000000000000000000000000000000000000000000000000000000000000000000000000000000000000000000000000000000",
      "type": "0x2",
      "effectiveGasPrice": "0x144aef8"
    },
    {
      "transactionHash": "0x67230a80c0f199df8867d83302976406ec1409b54d20d9e4a2218f965160e1c7",
      "transactionIndex": "0x38",
      "blockHash": "0x00384e9567ca86e3b86ec0d521547abbd506c7aba8a114ba27eb2240aeac91be",
      "blockNumber": "0xe74c53",
      "from": "0xAe009d532328FF09e09E5d506aB5BBeC3c25c0FF",
      "to": "0x9f9A3E0e769144824a25ae3Fc319976F2e6c759f",
      "cumulativeGasUsed": "0x304440",
      "gasUsed": "0x72d4",
      "contractAddress": null,
      "logs": [],
      "status": "0x1",
      "logsBloom": "0x00000000000000000000000000000000000000000000000000000000000000000000000000000000000000000000000000000000000000000000000000000000000000000000000000000000000000000000000000000000000000000000000000000000000000000000000000000000000000000000000000000000000000000000000000000000000000000000000000000000000000000000000000000000000000000000000000000000000000000000000000000000000000000000000000000000000000000000000000000000000000000000000000000000000000000000000000000000000000000000000000000000000000000000000000000000",
      "type": "0x2",
      "effectiveGasPrice": "0x144aef8"
    },
    {
      "transactionHash": "0x03c433014121a311f348bc3b1a230c2daa3c356614b360149102b2f412b1600d",
      "transactionIndex": "0x39",
      "blockHash": "0x00384e9567ca86e3b86ec0d521547abbd506c7aba8a114ba27eb2240aeac91be",
      "blockNumber": "0xe74c53",
      "from": "0xAe009d532328FF09e09E5d506aB5BBeC3c25c0FF",
      "to": "0x9f9A3E0e769144824a25ae3Fc319976F2e6c759f",
      "cumulativeGasUsed": "0x30b714",
      "gasUsed": "0x72d4",
      "contractAddress": null,
      "logs": [],
      "status": "0x1",
      "logsBloom": "0x00000000000000000000000000000000000000000000000000000000000000000000000000000000000000000000000000000000000000000000000000000000000000000000000000000000000000000000000000000000000000000000000000000000000000000000000000000000000000000000000000000000000000000000000000000000000000000000000000000000000000000000000000000000000000000000000000000000000000000000000000000000000000000000000000000000000000000000000000000000000000000000000000000000000000000000000000000000000000000000000000000000000000000000000000000000",
      "type": "0x2",
      "effectiveGasPrice": "0x144aef8"
    }
  ],
  "libraries": [],
  "pending": [],
  "returns": {},
  "timestamp": 1717106063,
  "chain": 8453,
  "multi": false,
  "commit": "4402de4"
}